:020000040800F2
:1000000000500020E5270008892700088F270008F6
:10001000952700089B270008A12700080000000082
:10002000000000000000000000000000A7270008FA
:10003000B327000800000000BF270008CB270008F6
:100040002D2800082D2800082D2800082D2800083C
:100050002D2800082D2800082D2800082D2800082C
:100060002D2800082D2800082D2800082D2800081C
:100070002D2800082D2800082D2800082D2800080C
:100080002D2800082D2800082D2800082D280008FC
:100090002D2800082D2800082D2800082D280008EC
:1000A0002D2800082D2800082D2800082D280008DC
:1000B0002D2800082D2800082D2800082D280008CC
:1000C0002D2800082D2800082D2800082D280008BC
:1000D0002D2800082D2800082D2800082D280008AC
:1000E0002D2800082D2800082D28000800000000F9
:1000F0000000000000000000000000000000000000
:0C01000000000000000000005FF808F1A3
:1001100010B5054C237833B9044B13B10448AFF341
:1001200000800123237010BD50000020000000005B
:10013000E043000808B5034B1BB103490348AFF384
:10014000008008BD0000000054000020E0430008CB
:1001500053B94AB9002908BF00281CBF4FF0FF312E
:100160004FF0FF3000F072B9ADF1080C6DE904CE2C
:1001700000F006F8DDF804E0DDE9022304B0704782
:100180002DE9F047089E0D4604468E46002B4CD1C3
:100190008A42944667D9B2FA82F353B102FA03FC59
:1001A000C3F1200201FA03FE20FA02F242EA0E0E27
:1001B0009C404FEA1C47BEFBF7F11FFA8CF507FB8A
:1001C00011EE01FB05F0220C42EA0E4290420AD9E0
:1001D0001CEB020201F1FF3E80F01981904240F2D7
:1001E000168102396244121AB2FBF7F007FB1022A3
:1001F00000FB05F5A4B244EA0244A5420AD91CEB6F
:10020000040400F1FF3280F00481A54240F2018134
:100210006444023840EA01400021641B1EB1DC4006
:100220000023C6E90043BDE8F0878B4208D9002EC1
:1002300000F0EA800021C6E900050846BDE8F08725
:10024000B3FA83F1002948D1AB4202D3824200F2D3
:10025000F880841A65EB030201209646002EE2D056
:10026000C6E9004EDFE702B9FFDEB2FA82F3002BE7
:1002700040F08E80881A0121170C1FFA82FEB0FB15
:10028000F7F507FB1500220C42EA00420EFB05F0D1
:10029000904208D91CEB020205F1FF3802D29042CD
:1002A00000F2CC804546121AB2FBF7F007FB102291
:1002B0000EFB00FEA4B244EA0244A64508D91CEB9A
:1002C000040400F1FF3202D2A64500F2B4801046C9
:1002D000A4EB0E0440EA0540A0E7C1F120078B40E3
:1002E00022FA07FC4CEA030C25FA07FA4FEA1C49EC
:1002F000BAFBF9F88D4020FA07F309FB18AA1FFA98
:100300008CFE2B4300FA01F508FB0EF01C0C44EAAE
:100310000A44A04202FA01F20BD91CEB040408F1D2
:10032000FF3A80F08680A04240F28380A8F1020864
:100330006444241A98B2B4FBF9F309FB134403FB99
:100340000EFE40EA0444A64508D91CEB040403F160
:10035000FF306AD2A64568D9023B644443EA0840AC
:10036000A0FB0293A4EB0E049C42C8469E4654D3C5
:1003700051D0002E67D0B5EB080364EB0E04CB40E0
:1003800004FA07F71F43CC40C6E9007400214AE78E
:1003900002FA03FCC3F12000C1409D4024FA00F0A2
:1003A0004FEA1C472843B1FBF7F507FB15111FFA6D
:1003B0008CFE020C42EA014205FB0EF1914204FA66
:1003C00003F408D91CEB020205F1FF382FD2914249
:1003D0002DD9023D6244521AB2FBF7F107FB1122FC
:1003E00080B240EA024001FB0EF2824208D91CEBC7
:1003F000000001F1FF3816D2824214D9023960445C
:10040000801A41EA05413AE7314630460BE771462A
:10041000E9E61046FEE64D45ABD2B9EB020863EBC8
:100420000C0E0138A5E74146EAE7034696E7454644
:10043000D1E7D0467DE76444023849E7023D624493
:1004400031E708460AE73146EDE600BF704700BFD6
:1004500080B485B000AF78607B681B68FB60FB6888
:1004600018461437BD4680BC7047000000000000ED
:1004700080B586B006AF10230593002304930023B4
:10048000039307230293062301930123009305A3FB
:10049000D3E90023024801F0FCF900BFBD4680BD4E
:1004A000C0030020400ECF190000000080B582B0CC
:1004B00000AF0A48FFF7CCFF78607B68B3F1FF3FDD
:1004C00002D100F0B1F904E07B68002B01D100F00B
:1004D00039FA00BF0837BD4680BD00BF00FC0108E7
:1004E00080B584B000AF78600748FFF7B1FFF860CF
:1004F000FB68B3F5004F01D8002300E00223184643
:100500001037BD4680BD00BF18FC010880B588B01B
:1005100000AFF860B9607A600023FB6100237B6163
:100520007B687B6100233B61214B5B69204A43F080
:1005300040035361FB689B08FB601E4B01229A60DD
:100540000023BB6124E07868FFF782FFF8617B69D4
:10055000194A934213D1FB6903F17843A3F5504341
:100560003B613B69002B0AD03B694FF6FE72934218
:1005700005D83B6903F1006303F5A043FB610D4A15
:10058000FB6913607B6804337B60BB690133BB612B
:10059000BA69FB689A42D6D3064B1B68BA689A427E
:1005A00001D1002300E0032318462037BD4680BD5B
:1005B000001002400030024000D0000880B588B032
:1005C00000AF78607B68B3F1FF3F01D10E4B7B60D9
:1005D0000023FB6001233B617B687B612023BB61BF
:1005E00002F01EFB07F1080207F10C031146184642
:1005F00002F0FEFB0346FB7702F038FBFB7F184658
:100600002037BD4680BD00BF0050000880B485B0D3
:1006100000AF78600023FB6007E07A68FB68134452
:1006200000221A70FB680133FB60FB683F2BF4D992
:1006300000BF00BF1437BD4680BC704780B485B092
:1006400000AF78600B467B807B88013B002B00DA93
:100650000733DB10FB737B88013B5A4203F007032F
:1006600002F0070258BF5342BB73FB7B7A68D35C2E
:100670005AB2BB7B012101FA03F35BB213435AB2B6
:10068000FB7BD1B27A68D15400BF1437BD4680BC21
:100690007047000080B586B000AF2A48FFF7D8FE4B
:1006A00078612948FFF7D4FE38616FF00C03FB60D6
:1006B0002648FFF7CDFEB8602548FFF7C9FE7860F1
:1006C0007B6913F10F0F18D1224A3969B868FFF717
:1006D0001DFF0346002B0AD17B68B3F1FF3F03D017
:1006E0001C491B4800F034F900F000F925E06FF0D8
:1006F0000B01144800F02CF91FE07B6913F10C0F7B
:1007000003D07B69B3F1FF3F17D100F0CFF8F86059
:10071000FB6813F10E0F06D10F490D4800F018F9D0
:1007200000F0E4F809E0FB6813F10C0F03D0FB685C
:10073000B3F1FF3F01D100F0A1F900BF1837BD466A
:1007400080BD00BF14FC01081CFC010818FC010856
:1007500044FC01080050000800D0000880B586B0B5
:1007600000AF2A48FFF774FE78612948FFF770FE52
:1007700038616FF00C03FB602648FFF769FEB86034
:100780002548FFF765FE78607B6913F10F0F18D1DC
:10079000224A3969B868FFF7B9FE0346002B0AD12F
:1007A0007B68B3F1FF3F03D01C491B4800F0D0F831
:1007B00000F09CF825E06FF00B01194800F0C8F834
:1007C0001FE07B6913F10C0F03D07B69B3F1FF3F8E
:1007D00017D100F04BF8F860FB6813F10E0F06D14B
:1007E00010490D4800F0B4F800F080F809E0FB680B
:1007F00013F10C0F03D0FB68B3F1FF3F01D100F000
:100800003DF900BF1837BD4680BD00BF34FC01086C
:100810003CFC010838FC010844FC010800D0000839
:1008200014FC01080050000880B582B000AF0C48ED
:10083000FFF70EFE78607B680A4A934204D07B681B
:10084000094A934203D005E0FFF724FF02E0FFF7D7
:1008500085FF00BF00F012F900BF0837BD4680BD1C
:1008600044FC01080050000800D0000880B582B0A8
:1008700000AF0D48FFF7ECFD78607B6813F10F0FB8
:1008800002D16FF00D030BE07B6813F10C0F03D066
:100890007B68B3F1FF3F02D16FF00B0300E07B6890
:1008A00018460837BD4680BD14FC010880B582B0EB
:1008B00000AF0D48FFF7CCFD78607B6813F10F0F98
:1008C00002D16FF00D030BE07B6813F10C0F03D026
:1008D0007B68B3F1FF3F02D16FF00B0300E07B6850
:1008E00018460837BD4680BD34FC010880B582B08B
:1008F00000AF1048FFF7ACFD78600F4B00221A6084
:1009000001F0ACFF0D4B00229A6000233B607B6836
:1009100004331B683B60BFF35F8F00BF084A7B68EE
:100920009360BFF34F8F00BF3B68984700BF083705
:10093000BD4680BD44FC010810E000E0001002400C
:1009400000ED00E080B500AF00F0A6F800BF80BD6C
:100950002DE9B043B2B000AF786039600023A7F84A
:10096000C6300023A7F8C4300023C7F8C030414B7D
:10097000C7F8C03031E0D7F8C0207B689A4214BF76
:1009800001230023DAB2D7F8C0301B68B3F1FF3F70
:1009900014BF01230023DBB21340DBB2002B17D0BE
:1009A000B7F8C6309B00C8333B44D7F8C02043F8A3
:1009B000582CD7F8C020B7F8C63012689B00C8334F
:1009C0003B4443F8A82CB7F8C6300133A7F8C6302B
:1009D000D7F8C0300433C7F8C030D7F8C030264A43
:1009E0009342C8D900233B6101237B61214BBB614A
:1009F0000123FB6102F014F907F10C0207F1100367
:100A00001146184602F0F4F90023A7F8C4301AE0A2
:100A1000B7F8C4309B00C8333B4453F8581CB7F8B0
:100A2000C4309B00C8333B4453F8A83C002298468E
:100A3000914642464B46022002F082F8B7F8C43095
:100A40000133A7F8C430B7F8C420B7F8C6309A42CB
:100A5000DED33B6800221C46154622462B467968A9
:100A6000022002F06DF802F001F900BFC837BD4660
:100A7000BDE8B08300FC01084FFC010880B500AF61
:100A800000210348FFF764FF00F0A0FB00BF80BD1A
:100A900000FC01080000000080B58AB006AF00230A
:100AA000FB600023BB6000237B607348FFF7D0FC32
:100AB0003860FFF7DDFC714B1A78022300930123A5
:100AC0006F49704801F050F942F2107210216D48E0
:100AD00000F098FD0346DAB2684B1A70674B1A783B
:100AE0002023009301236649664801F0A7F80346D6
:100AF000002BF3D1614B1A7821230193102300932B
:100B000040F6B83360495F4801F052F85C4BDA7840
:100B10005E4B1A705A4B1A795D4B1A70584B5A79C2
:100B20005C4B1A70594B1B78594A1278594909780D
:100B300080200590002004900391029201930123EC
:100B400000934BA3D3E900234E4800F0A2FE4C4B88
:100B50005B7A1A064A4B1B7A1B041A43484BDB7913
:100B60001B021343464A92791343FB60444BDB7AE2
:100B70001B02434A927A13437B60414BDB7B1A068C
:100B80003F4B9B7B1B041A433D4B5B7B1B02134378
:100B90003B4A127B1343BB60F868FFF7A1FC034696
:100BA000032B0ED1354B1A783F230193102300936A
:100BB00040F6B8333249334800F0FAFFFFF75EFFE2
:100BC0008CE73B68B3F1FF3F32D03B68324A934237
:100BD00004D03B68314A934215D03EE079683048F2
:100BE000FFF7B6FEB9682F48FFF7B2FE6FF00B01B2
:100BF0002D48FFF7ADFEF9682C48FFF7A9FE2748FE
:100C0000FFF7DCFC29E079682948FFF7A1FEB96805
:100C10002848FFF79DFE6FF00B012748FFF798FE6D
:100C2000F9682648FFF794FE1B48FFF7C7FC14E05D
:100C300079681F48FFF78CFEB9681E48FFF788FEE9
:100C40006FF00B011C48FFF783FEF9681B48FFF7A4
:100C50007FFE1148FFF7B2FC00BF4FF0FF3118488C
:100C6000FFF776FE00F030F838E700BFAFF3008002
:100C7000400ECF190000000044FC0108780100205C
:100C800060010020C00300206C00002072010020E1
:100C900073010020740100200050000800D00008FB
:100CA00030FC01083CFC010834FC010838FC010858
:100CB00010FC01081CFC010814FC010818FC0108C8
:100CC00000FC0108000000002DE9B04398B006AF19
:100CD00000237B6400237B6200233B6200233B6490
:100CE0000023FB630023BB6300237B637C4B002258
:100CF0001A800023FB830023BB837A48FFF7A8FBFD
:100D0000B8610023FB8200237B86BB69B3F1FF3F00
:100D10001ED0BB69744A934204D0BB69734A9342A4
:100D20000BD020E07248FFF793FB0346714A136033
:100D30006E4BBB636D4B7B6415E06F48FFF788FB20
:100D400003466C4A1360684BBB63674B7B640AE0E5
:100D50006948FFF77DFB0346664A1360624BBB633D
:100D6000614B7B6400BF7022FF21644803F0FEFAF0
:100D7000604B1B689B099BB201337B867B8EFB8299
:100D80005F48FFF743FC68E1554B1B88002B14D1EB
:100D90005C4B1B785C4A12785C490978802005908E
:100DA00000200490039102920193012300934AA32F
:100DB000D3E90023564800F06CFD564A564957487F
:100DC00001F0EAF85022FF21554803F0CFFA012341
:100DD000544A53494E4800F067FE03461A46404BBA
:100DE0001A803F4B1B88002B0ED1FFF741FB4E4B67
:100DF0001A78212301931023009340F6B8334B490E
:100E0000434800F0D5FE28E1354B1B884FF6FC72B5
:100E100093422FD17B8E002B2CD0502200213748BB
:100E200003F0A4FA354B03221A70344B01225A7096
:100E3000324B0022DA707B8EDAB2304B1A7100230B
:100E4000FB620AE0FB6A10332D49FA6A0A44117802
:100E50002A4AD154FB6A0133FB62FB6A3F2BF1D96A
:100E6000314B1A787623009301232449284800F057
:100E700033FFF2E07B8E002B00F0EF80184B1B88D5
:100E8000002B00F0EA80164B1B884FF6FC72934251
:100E900000F0E380124B1B88FA8A9A42C0F0DD8092
:100EA0001F4B9B78FE2B40F0D8800D4B1B881946BA
:100EB0001348FFF7C3FB0A4B1B88013B9B011A46F3
:100EC000BB6B13447B6340221549164801F0BFFBFE
:100ED000002387F82B30A1E0400ECF19000000005E
:100EE0007001002044FC01080050000800D00008F8
:100EF00038FC01085C01002018FC0108BC0000203F
:100F00003C020020720100207301002074010020C7
:100F1000C003002010000020000000207C01002001
:100F20000C0100207C000020780100206C000020D3
:100F300097F82B30DB007B757B7D07334D4AD35C04
:100F40001A067B7D06334B49CB5C1B041A437B7D21
:100F500005334849CB5C1B0213437A7D0432454973
:100F60008A5C13433B647B7D0333424AD35C1A069D
:100F70007B7D02333F49CB5C1B041A437B7D0133ED
:100F80003C49CB5C1B0213437A7D3A498A5C13438C
:100F9000FB63FB6B03F17843A3F5A0433B623B6C1F
:100FA00003F17843A3F5A0437B623B6A4FF6FE72E0
:100FB000934206D83B6A002B03D07A6C3B6A1344F9
:100FC000FB637B6A4FF6FE72934206D87B6A002B66
:100FD00003D07A6C7B6A13443B6401F021FEFB6B07
:100FE00000221C46154622462B46796B022001F052
:100FF000A7FD7B6B191D3B6C00229846914642462B
:101000004B46022001F09CFD7B6B08337B6301F0B3
:101010002DFE97F82B30013387F82B3097F82B30C3
:10102000072B85D9144A7B8E13807B8E013B7B86F0
:101030005022FF21114803F099F94022FF210D4869
:1010400003F094F90E4B1B88FB837B8E002B04D19D
:10105000BB8B002B01D100F015F87B8E4FF6FF7291
:1010600093427FF491AE00BF00BF4837BD46BDE854
:10107000B08300BF7C000020760100200C0100201E
:101080007001002080B586B002AF0023FB730023FF
:10109000BB6000237B603F48FFF7DAF938603B68AC
:1010A000B3F1FF3F1ED03B683B4A934204D03B68FC
:1010B0003A4A93420BD020E03948FFF7C9F9B860AB
:1010C0003848FFF7C5F97860344B3B6015E0364887
:1010D000FFF7BEF9B8603548FFF7BAF978602E4BD4
:1010E0003B600AE03048FFF7B3F9B8602F48FFF7DC
:1010F000AFF97860284B3B6000BF4FF0FF312C48C0
:10110000FFF726FC642001F013FC3A687968B868A0
:10111000FFF7FCF90346002B31D13B681E4A93428E
:1011200004D03B681D4A93420AD013E01A4919487B
:10113000FFF70EFC6FF00E011E48FFF709FC09E0F7
:1011400016491448FFF704FC6FF00E011A48FFF728
:10115000FFFB00BF194B1A7877230093012318492E
:10116000184800F0B9FD642001F0E2FBFB7B0A2B7C
:1011700001D100F02BF8FB7B0133FB73EAE70F4B47
:101180001A784F23009301230F490E4800F0A4FD65
:10119000BBE700BF44FC01080050000800D0000875
:1011A00038FC01083CFC010818FC01081CFC010883
:1011B00000FC010814FC010834FC0108780100203F
:1011C0000C010020C00300206001002080B500AFAA
:1011D0000C4B5B680B4A43F4807353600A4B0B4A19
:1011E0001A60094B00225A60074B09229A60064890
:1011F00002F072F80346002B01D001F023FA00BF81
:1012000080BD00BF002004E040030020003000400B
:1012100080B584B000AF78600B46FB707B681B68BC
:10122000FA781146184600F0D7FB7B681B68184611
:1012300000F0F2FB0346FB737B681B680121184634
:1012400000F08FFBFB7B18461037BD4680BD80B594
:1012500082B000AF78600B46FB701346BB707B68B2
:101260001B680021184600F07CFB7B681A68FB783D
:1012700063F07F03DBB21946104600F0ADFB7B68DC
:101280001B68BA781146184600F0A6FB7B681B68FD
:101290000121184600F065FB00BF0837BD4680BD40
:1012A00090B587B000AFF8607A601A460B46FB72C3
:1012B0001346BB72BB7A012B27D9FB681B68002140
:1012C000184600F04EFBFB681B68FA7A1146184678
:1012D00000F082FB0023FB750CE0FB681968FB7DC6
:1012E0007A68D418084600F097FB03462370FB7D0C
:1012F0000133FB75FA7DBB7A9A42EED3FB681B681B
:101300000121184600F02DFB00E000BF1C37BD4650
:1013100090BD80B586B000AFF8607A601A460B4683
:10132000FB721346BB72BB7A012B29D9FB681B6881
:101330000021184600F015FBFB681A68FB7A63F081
:101340007F03DBB21946104600F046FB0023FB7515
:101350000BE0FB681868FB7D7A6813441B7819461C
:1013600000F03AFBFB7D0133FB75FA7DBB7A9A42B4
:10137000EFD3FB681B680121184600F0F2FA00E089
:1013800000BF1837BD4680BD80B586B000AF78601D
:10139000786800F00DF90F2000F064FB786800F029
:1013A00017F979684A688B684FF000004FF0000128
:1013B000D90441EA5231D0046F4A4FF00003FEF7DE
:1013C000C7FE02460B46C7E90423D7E904014FF0E4
:1013D00000024FF00003020C42EA01420B0CD3B2B0
:1013E0003B73D7E904014FF000024FF00003020AFB
:1013F00042EA01620B0AD3B27B733B7CBB7307F1F9
:101400000C02032306217868FFF783FF3422392179
:101410007868FFF71CFF7B681B7B1A46574B9B5C69
:101420001A4609217868FFF712FF0B220B21786812
:10143000FFF70DFF23220C217868FFF708FF7B6878
:101440005B7B1A464E4B9B5C062B47D17B689B7B94
:101450001A464C4B9B5C1B01DAB27B68DB7B19465E
:10146000494B5B5C5B00DBB21344DBB20133DBB2A4
:101470001A461D217868FFF7EAFE7B685B7B1A46F7
:101480003F4B9B5C1B01DAB27B681B7C19463F4BD0
:101490005B5C9B00DBB21344DBB20333DBB21A4666
:1014A0001E217868FFF7D3FE31217868FFF7B0FE80
:1014B0000346FB73FB7B23F00703FB73FB7B43F0CB
:1014C0000503FB73FB7B1A4631217868FFF7BFFEEB
:1014D0000C2237217868FFF7BAFE29E07B689B7BF6
:1014E0001A46284B9B5C1B01DAB27B68DB7B1946F2
:1014F000254B5B5C5B00DBB21344DBB21A461D215B
:101500007868FFF7A4FE7B685B7B1A461C4B9B5CEC
:101510001B01DAB27B681B7C19461C4B5B5C9B0091
:10152000DBB21344DBB21A461E217868FFF78FFE48
:10153000042226217868FFF78AFE08221F21786896
:10154000FFF785FE002220217868FFF780FE082241
:1015500021217868FFF77BFE012241217868FFF79F
:1015600076FE7B68002283F81321786800F010F87B
:1015700000BF1837BD4680BD0048E801F8430008A9
:10158000FC43000804440008104400081444000808
:1015900080B582B000AF7860092201217868FFF73A
:1015A00056FE7B6801229A7400BF0837BD4680BD95
:1015B00080B582B000AF7860082201217868FFF71B
:1015C00046FE7B6800229A7400BF0837BD4680BD86
:1015D00080B582B000AF7860882201217868FFF77B
:1015E00036FE00BF0837BD4680BD80B582B000AF73
:1015F0007860FF2212217868FFF729FE00BF0837C4
:10160000BD4680BD80B586B000AFF8600B467A60FD
:10161000FB72FB68FA7A5A74F868FFF7B5FE842209
:101620004D21F868FFF713FEFF222421F868FFF729
:101630000EFE01224021F868FFF709FE3F2211212A
:10164000F868FFF704FEF868FFF7CFFFFB7A1A4649
:101650002221F868FFF7FBFD0F21F868FFF7D8FD9E
:101660000346FB75FB7D1A460D21F868FFF7EFFD79
:101670008D220121F868FFF7EAFDFB68002283F85C
:1016800013211821F868FFF7C3FD034603F0040394
:10169000042B04D1FB6803229A74012313E07B68B6
:1016A000013B7B607B68002B09D1FB681B681846F7
:1016B00000F06EF9F868FFF767FE002303E00120F1
:1016C00000F0D0F9DDE718461837BD4680BD0000B0
:1016D00080B584B000AF78607B681B68184600F066
:1016E000CCF90346002B33D07B6813334FF4807260
:1016F0000021184602F03AFE10217868FFF788FDB5
:1017000003461A46164B1A70154B1B781A460D21C4
:101710007868FFF79CFD7B685B7B002B03D17B68BF
:101720005B7CFB7305E013217868FFF771FD0346CE
:10173000FB737B6803F11302FB7B00217868FFF7E2
:10174000AFFD7B68FA7B83F813217868FFF74DFFC4
:101750007B6893F8133118461037BD4680BD00BF33
:101760007C02002080B586B000AFF8600B467A603E
:10177000FB72FB68FA7A5A74F868FFF705FE872255
:101780004D21F868FFF763FD00222421F868FFF778
:101790005EFD41224021F868FFF759FDF868FFF728
:1017A00024FFF7221121F868FFF751FDFB7A1A4652
:1017B0002221F868FFF74BFD0E21F868FFF728FD9E
:1017C0000346FB75FB7D1A460D21F868FFF73FFDC8
:1017D0002221F868FFF71CFD0346BB75BA7DFB7A32
:1017E0009A4204D1FB6802229A7401230EE07B68BE
:1017F000013B7B607B68002BEAD1FB681B681846C5
:1018000000F0C6F8F868FFF7BFFD00231846183748
:10181000BD4680BD80B584B000AFF860B9603B6064
:101820001346FB71FB79BA680021F868FFF771FD78
:101830008B220121F868FFF70AFDFB681B68184638
:1018400000F01BF90346002B0BD01221F868FFF7BC
:10185000DFFCF868FFF7C9FEF868FFF799FE01237F
:1018600013E03B68013B3B603B68002B09D1FB6800
:101870001B68184600F08CF8F868FFF785FD002318
:1018800003E0012000F0EEF8D7E718461037BD4618
:1018900080BD80B584B000AFF860C7E90023FB6865
:1018A0001B68184600F048F8FB683A685A607A6886
:1018B0009A60FB683A7E1A73FB683A7F5A73FB683A
:1018C00097F820209A73FB6897F82420DA73FB6856
:1018D00097F828201A74FB6897F82C205A74F86837
:1018E000FFF752FD00BF1037BD4680BD80B584B004
:1018F00000AFF860B9601346FB71FB6893F81331D1
:10190000FA799A4203D0FB6893F81331FB71FB68B4
:101910001333FA791946B86802F054FDFB79BA68B6
:10192000134400221A70FB68002283F81321FB790C
:1019300018461037BD4680BD80B582B000AF7860D4
:101940000121786800F00DF87B6858687B681B6897
:101950009BB20122194601F08EFC00BF0837BD463C
:1019600080BD80B582B000AF786039607B6858690F
:101970007B681B6999B23B68012B0CBF01230023D4
:10198000DBB21A4601F077FC00BF0837BD4680BDC8
:1019900080B582B000AF786001217868FFF7E1FF81
:1019A0007B6858687B681B689BB20022194601F06F
:1019B00062FC012000F056F87B6858687B681B6861
:1019C0009BB20122194601F056FC642000F04AF84F
:1019D00000BF0837BD4680BD80B582B000AF7860DB
:1019E0000B46FB7000217868FFF7BBFF7B689869A6
:1019F000F91C4FF47A73012202F012F900BF7B68E0
:101A00009B69184602F0FFFB0346012BF7D100BF8C
:101A100000BF0837BD4680BD80B586B002AF786094
:101A20000023FB730023BB7300217868FFF799FF45
:101A30007B68986907F10E0207F10F014FF47A7382
:101A40000093012302F02FFA00BF7B689B691846C0
:101A500002F0D9FB0346012BF7D1BB7B18461037A8
:101A6000BD4680BD80B582B000AF7860786800F078
:101A70005FFF00BF0837BD4680BD80B582B000AFB4
:101A800078607B68DA687B689B689BB21946104671
:101A900001F0DAFB0346012B0CBF01230023DBB26C
:101AA00018460837BD4680BD80B586B000AFF860E7
:101AB000B9607A60FB70384B00221A700023FB82F9
:101AC00040F6B8325021F868FFF79CFD0346DAB2C1
:101AD000324B1A70F868FFF7FBFD03461A462F4B8E
:101AE0001A702E4B1B78002BF4D02C4B1B781A4607
:101AF000B968F868FFF7FAFE03461A46274B1A70D2
:101B0000274A2849284800F047FA5022B968264851
:101B100000F005FCBB681B78FF2B1DD1BB680133AF
:101B20001B78FA789A4217D1BB6802331B78FE2BD8
:101B300012D14FF400511D4801F0B5FBBB680333CF
:101B40001B781B021AB2BB6804331B781BB2134309
:101B50001BB2FB82FB8A1BE0BB681B78FF2B0DD1FD
:101B6000BB6801331B78FA789A4207D1BB6802330D
:101B70001B78392B02D14FF6FC7309E0064B1B781A
:101B80000133DAB2044B1A70012000F0D1FEA1E754
:101B900018461837BD4680BD7D0200207801002020
:101BA00030000020200000208002002000100140B2
:101BB00080B584B000AFF860B9603B601346FB713C
:101BC000BB6803221A70BB68013301221A70BB681C
:101BD00002333A7F1A70154A1549164800F0DCF9AD
:101BE0001022B968134800F09AFB3B7E3A68194608
:101BF000F868FFF7B7FD0346FB7140F6B8331022D3
:101C0000B968F868FFF706FE0346FB71FB79002B05
:101C100006D04FF40051084801F045FB012300E0D5
:101C2000002318461037BD4680BD00BF300000209D
:101C300020000020800200200010014080B584B008
:101C400000AFF860B96011461A460B46FB711346A7
:101C5000BB711C4B00221A70F868FFF739FD034670
:101C6000FB71FB79002B28D0FB791A46B968F8681C
:101C7000FFF73CFE0346FB71134A1449144800F079
:101C80008BF91022B968124800F049FBBB681B7839
:101C9000FF2B12D1BB6801331B78BA799A420CD161
:101CA000BB6802331B783A7E9A4206D14FF400514A
:101CB000084801F0F8FA002300E001231846103725
:101CC000BD4680BD7D0200203000002020000020A5
:101CD000800200200010014080B584B000AFF860A1
:101CE000B96011461A460B46FB711346BB71BB68BF
:101CF00003221A70BB680133BA791A70BB680233C9
:101D00003A7E1A7040F6B8328021F868FFF72AFD53
:101D10000346FB71104A1149114800F03DF9802239
:101D2000B9680F4800F0FBFA40F6B8338022B96872
:101D3000F868FFF76FFD0346FB71FB79002B06D0B7
:101D40004FF40051074801F0AEFA002300E00223EF
:101D500018461037BD4680BD30000020200000200E
:101D6000800200200010014080B584B000AFF86010
:101D7000B96011461A460B46FB711346BB71BB682E
:101D800003221A70BB680133BA791A70BB68023338
:101D90003A7E1A7040F6B8321021F868FFF7E2FC7C
:101DA0000346FB71104A1149114800F0F5F8102262
:101DB000B9680F4800F0B3FA40F6B8331022B9689A
:101DC000F868FFF727FD0346FB71FB79002B06D06F
:101DD0004FF40051074801F066FA002300E00223A7
:101DE00018461037BD4680BD30000020200000207E
:101DF000800200200010014080B489B000AF7860FC
:101E000039600023FB6130E0FB699B003A681A44AB
:101E1000FB699B0079680B4412781A70FB699B0080
:101E200001333A681A44FB699B00013379680B441B
:101E300012781A70FB699B0002333A681A44FB69F6
:101E40009B00023379680B4412781A70FB699B007F
:101E500003333A681A44FB699B00033379680B44E7
:101E600012781A70FB690133FB61FB69032BCBD934
:101E70000423FB6181E0FB69013B9B00BB617A6845
:101E8000BB6913441B783B73BB6901337A68134405
:101E90001B787B73BB6902337A6813441B78BB736E
:101EA000BB6903337A6813441B78FB73FB6903F047
:101EB0000303002B25D13B7BFB757B7B3B73BB7BFB
:101EC0007B73FB7BBB73FB7DFB733B7B1A46304B09
:101ED0009B5C3B737B7B1A462D4B9B5C7B73BB7B74
:101EE0001A462B4B9B5CBB73FB7B1A46284B9B5CB7
:101EF000FB733A7BFB699B082649CB5C5340DBB202
:101F00003B73FB699B003B61FB69043B9B00BB612E
:101F10007A68BB69134419783A7B78683B69034453
:101F20004A40D2B21A70BB6901337A6813441978F7
:101F30007A7B3B690133786803444A40D2B21A7015
:101F4000BB6902337A6813441978BA7B3B69023360
:101F5000786803444A40D2B21A70BB6903337A6886
:101F600013441978FA7B3B690333786803444A4089
:101F7000D2B21A70FB690133FB61FB692B2B7FF630
:101F80007AAF00BF00BF2437BD4680BC704700BF9A
:101F9000184400081845000880B584B000AFF86008
:101FA000B9607A60FB68B9681846FFF725FFFB68DF
:101FB000B03310227968184602F004FA00BF1037D7
:101FC000BD4680BD80B487B000AF0346B9607A607B
:101FD000FB730023FB7527E00023BB751EE0FA7D31
:101FE000BB7DB96892000A4413441878FB7B9A00C1
:101FF000FB7D13449A00BB7D13441A467B6813444F
:102000001978FA7DBB7D4140C8B2B96892000A4494
:10201000134402461A70BB7D0133BB75BB7D032B95
:10202000DDD9FB7D0133FB75FB7D032BD4D900BFCC
:1020300000BF1C37BD4680BC7047000080B485B02F
:1020400000AF78600023FB731DE00023BB7314E036
:10205000BA7BFB7B796892000A4413441B781846CC
:10206000BA7BFB7B0C49085C796892000A441344F4
:1020700002461A70BB7B0133BB73BB7B032BE7D9D2
:10208000FB7B0133FB73FB7B032BDED900BF00BF5F
:102090001437BD4680BC70471844000880B485B032
:1020A00000AF78607B685B78FB737B685A797B68EC
:1020B0005A707B685A7A7B685A717B685A7B7B6856
:1020C0005A727B68FA7B5A737B689B78FB737B68D8
:1020D0009A7A7B689A707B68FA7B9A727B689B79A4
:1020E000FB737B689A7B7B689A717B68FA7B9A7337
:1020F0007B68DB78FB737B68DA7B7B68DA707B68F4
:10210000DA7A7B68DA737B68DA797B68DA727B6803
:10211000FA7BDA7100BF1437BD4680BC704780B4CB
:1021200083B000AF0346FB71FB795B005AB2FB79C9
:10213000DB09DBB2194649000B441946C8001946B1
:1021400003460B44DBB25BB253405BB2DBB21846D2
:102150000C37BD4680BC704780B584B000AF786056
:102160000023FB73A4E0FA7B7B6813F82230BB7377
:10217000FA7B7B6813F82220FB7B79689B000B4479
:102180005B785340DAB2FB7B79689B000B449B7809
:102190005340DAB2FB7B79689B000B44DB785340F9
:1021A0007B73FA7B7B6813F82220FB7B79689B00AA
:1021B0000B445B7853403B733B7B1846FFF7AFFF04
:1021C00003463B73FA7B7B6813F822103A7B7B7BD8
:1021D0005340DBB2FA7B4B40D9B27B6803F8221044
:1021E000FB7B7A689B0013445A78FB7B79689B00E1
:1021F0000B449B7853403B733B7B1846FFF78FFFA4
:1022000003463B73FB7B7A689B00134459783A7B07
:102210007B7B5340DAB2FB7B4A40D1B27A689B00A9
:1022200013440A465A70FB7B7A689B0013449A78E1
:10223000FB7B79689B000B44DB7853403B733B7B13
:102240001846FFF76CFF03463B73FB7B7A689B00E5
:10225000134499783A7B7B7B5340DAB2FB7B4A404C
:10226000D1B27A689B0013440A469A70FB7B7A6865
:102270009B001344DA78BB7B53403B733B7B18468F
:10228000FFF74DFF03463B73FB7B7A689B001344CB
:10229000D9783A7B7B7B5340DAB2FB7B4A40D1B2A0
:1022A0007A689B0013440A46DA70FB7B0133FB73A8
:1022B000FB7B032B7FF657AF00BF00BF1037BD4637
:1022C00080BD80B584B000AF786039600023FB73B7
:1022D0003A6879680020FFF775FE0123FB73786880
:1022E000FFF7ACFE7868FFF7D9FEFB7B0A2B0CD01A
:1022F0007868FFF731FFFB7B3A6879681846FFF78B
:1023000061FEFB7B0133FB73E9E700BF3A68796844
:102310000A20FFF757FE00BF1037BD4680BD90B5BD
:102320008BB000AFF860B9607A6000237B62102345
:102330003B624EE03B6A102B36D1FB68B03307F1AD
:102340001004186859689A68DB680FC4FA6807F1C6
:10235000100311461846FFF7B4FF0F233B621EE03F
:10236000FA683B6A1344B0331B78FF2B06D1FA6836
:102370003B6A1344B03300221A700DE0FA683B6ADE
:102380001344B0331B780133D9B2FA683B6A134463
:10239000B0330A461A7005E03B6A013B3B623B6A78
:1023A000002BDDDA00233B62BA687B6A134419789C
:1023B00007F110023B6A13441A78B8687B6A034439
:1023C0004A40D2B21A707B6A01337B623B6A0133A6
:1023D0003B627A6A7B689A42ACD300BF00BF2C375D
:1023E000BD4690BD80B500AF00F022FA00F02AF89B
:1023F00000F0A6F800F06EF80D4B0E4ADA600C4BB8
:1024000002229A600A4B0C4A5A61094B10221A6147
:10241000074B084A5A60064B01221A60044B074AD0
:102420009A61074B024A1A60FEF740F8FEE700BFC8
:10243000A4030020000C0140000801404C030020D0
:10244000C003002080B590B000AF07F11803282228
:102450000021184601F08AFF3B1D00221A605A60D5
:102460009A60DA601A610923BB614FF48033FB6123
:1024700000233B620123BB6201233B6302237B6396
:102480004FF48033BB634FF4E013FB6307F1180391
:10249000184600F063FF0346002B01D000F0D2F88D
:1024A0000F237B600223BB600023FB604FF480633B
:1024B0003B6100237B613B1D0221184601F0D0F9EE
:1024C0000346002B01D000F0BDF800BF4037BD46E9
:1024D00080BD000080B500AF174B184A1A60164B3C
:1024E0004FF482725A60144B00229A60124B002201
:1024F000DA60114B00221A610F4B00225A610E4B19
:102500004FF400729A610C4B1022DA610A4B0022E0
:102510001A62094B00225A62074B00229A62064B4C
:102520000A22DA62044801F0F7FA0346002B01D0D0
:1025300000F088F800BF80BD4C030020003001404F
:1025400080B588B000AF07F1100300221A605A600E
:102550009A60DA60374B9B69364A43F01003936107
:10256000344B9B6903F01003FB60FB68314B9B69A4
:10257000304A43F0200393612E4B9B6903F0200304
:10258000BB60BB682B4B9B692A4A43F004039361F1
:10259000284B9B6903F004037B607B68254B9B6998
:1025A000244A43F008039361224B9B6903F008031C
:1025B0003B603B6800224FF400511F4800F05BFE77
:1025C000002210211D4800F056FE002207211C4861
:1025D00000F051FE4FF400533B6101237B61002367
:1025E000BB610223FB6107F110031946124800F09A
:1025F000A7FC10233B6101237B610023BB61022305
:10260000FB6107F1100319460C4800F099FC072301
:102610003B6101237B610023BB610223FB6107F166
:1026200010031946064800F08BFC00BF2037BD465A
:1026300080BD00BF001002400010014000080140B2
:10264000000C014080B400AF72B600BFFEE780B45A
:1026500087B000AFF860B9607A60BB6810337B6107
:102660000023FB740AE07A69531C7B61FB68591CE8
:10267000F96012781A70FB7C0133FB74FB7C7A687A
:102680009A42F0D800BF00BF1C37BD4680BC7047DF
:1026900080B485B000AF154B9B69144A43F0010329
:1026A0009361124B9B6903F00103BB60BB680F4B46
:1026B000DB690E4A43F08053D3610C4BDB6903F0B6
:1026C00080537B607B680A4B5B68FB60FB6823F090
:1026D000E063FB60FB6843F00073FB60044AFB6847
:1026E000536000BF1437BD4680BC704700100240E5
:1026F0000000014080B588B000AF786007F110039A
:1027000000221A605A609A60DA607B681B681B4A74
:1027100093422FD11A4B9B69194A43F4805393611A
:10272000174B9B6903F48053FB60FB68144B9B6958
:10273000134A43F004039361114B9B6903F00403B4
:10274000BB60BB68A0233B6102237B610323FB6169
:1027500007F1100319460B4800F0F2FB40233B61E0
:1027600000237B610023BB6107F110031946054874
:1027700000F0E6FB00BF2037BD4680BD00300140C1
:10278000001002400008014080B400AFFEE780B4B2
:1027900000AFFEE780B400AFFEE780B400AFFEE715
:1027A00080B400AFFEE780B400AF00BFBD4680BC80
:1027B000704780B400AF00BFBD4680BC704780B496
:1027C00000AF00BFBD4680BC704780B500AF00F0D1
:1027D00093F800BF80BD80B400AF00BFBD4680BC91
:1027E00070470000FFF7F7FF0B480C490C4A002325
:1027F00002E0D458C4500433C4188C42F9D3094AB7
:10280000094C002301E013600432A242FBD301F023
:10281000B5FDFFF7E7FD7047000000204C000020E9
:102820005845000850000020F8040020FEE7000092
:1028300080B500AF084B1B68074A43F010031360D4
:10284000032000F049F90F2000F026F8FFF720FFE1
:102850000023184680BD00BF0020024080B500AFB5
:10286000094B4FF0FF321A61074B00221A61064BE9
:102870004FF0FF32DA60044B0022DA6000F006F815
:102880000023184680BD00BF0010024080B400AF96
:1028900000BFBD4680BC704780B582B000AF786095
:1028A000124B1A68124B1B7819464FF47A73B3FB1C
:1028B000F1F3B2FBF3F3184600F035F90346002BB1
:1028C00001D001230EE07B680F2B0AD80022796823
:1028D0004FF0FF3000F00BF9064A7B6813600023CD
:1028E00000E0012318460837BD4680BD40000020A7
:1028F000480000204400002080B400AF054B1B7846
:102900001A46054B1B681344034A136000BFBD46BB
:1029100080BC704748000020D404002080B400AF81
:10292000024B1B681846BD4680BC7047D40400208B
:1029300080B584B000AF7860FFF7F0FFB8607B68C7
:10294000FB60FB68B3F1FF3F05D00A4B1B781A46CA
:10295000FB681344FB6000BFFFF7E0FF0246BB6863
:10296000D31AFA689A42F7D800BF00BF1037BD46A5
:1029700080BD00BF4800002080B485B000AF786003
:102980007B6803F00703FB600C4BDB68BB60BA6835
:102990004FF6FF031340BB60FB681A02BB6813438A
:1029A00043F0BF6343F40033BB60044ABB68D360A9
:1029B00000BF1437BD4680BC704700BF00ED00E08B
:1029C00080B400AF044BDB681B0A03F00703184612
:1029D000BD4680BC704700BF00ED00E080B483B00E
:1029E00000AF03463960FB7197F90730002B0ADB13
:1029F0003B68DAB20C4997F907301201D2B20B44A6
:102A000083F800230AE03B68DAB20849FB7903F057
:102A10000F03043B1201D2B20B441A7600BF0C37ED
:102A2000BD4680BC704700BF00E100E000ED00E063
:102A300080B489B000AFF860B9607A60FB6803F0D9
:102A40000703FB61FB69C3F10703042B28BF0423C1
:102A5000BB61FB690433062B02D9FB69033B00E031
:102A600000237B614FF0FF32BB6902FA03F3DA43C4
:102A7000BB681A407B699A404FF0FF317B6901FACD
:102A800003F3D9437B680B40134318462437BD46F4
:102A900080BC704780B582B000AF78607B68013B36
:102AA000B3F1807F01D301230FE00A4A7B68013B29
:102AB00053600F214FF0FF30FFF790FF054B0022CE
:102AC0009A60044B07221A60002318460837BD4657
:102AD00080BD00BF10E000E080B582B000AF78603C
:102AE0007868FFF749FF00BF0837BD4680BD80B555
:102AF00086B000AF0346B9607A60FB7300237B6148
:102B0000FFF75EFF78617A68B9687869FFF790FF30
:102B1000024697F90F3011461846FFF75FFF00BFD6
:102B20001837BD4680BD80B582B000AF7860786848
:102B3000FFF7B0FF034618460837BD4680BD0000CA
:102B4000F0B587B000AFF860B960C7E90023012392
:102B5000FB750023BB7500237B752F4B1B7E012B60
:102B600001D1022354E02C4B01221A764CF2503052
:102B700000F0A8F80346FB75FB7D002B44D1FB68F1
:102B8000012B02D101237B7507E0FB68022B02D1E8
:102B900002237B7501E004237B750023BB752DE0C8
:102BA000BB7D5A00BB6802EB030CBB7D1901D7E962
:102BB0000023C1F12006A1F1200022FA01F403FA5A
:102BC00006F6344323FA00F0044323FA01F5A3B2D6
:102BD0001946604600F05AF84CF2503000F072F896
:102BE0000346FB750D4B1B690C4A23F0010313616F
:102BF000FB7D002B07D1BB7D0133BB75BA7D7B7D8F
:102C00009A42CDD300E000BF034B00221A76FB7D31
:102C100018461C37BD46F0BDD804002000200240F5
:102C200080B483B000AF0023FB710D4B1B6903F030
:102C30008003002B0DD00A4B0A4A5A60084B0A4AFF
:102C40005A60074B1B6903F08003002B01D001235E
:102C5000FB71FB7918460C37BD4680BC704700BF3E
:102C60000020024023016745AB89EFCD80B400AF5F
:102C7000054B1B69044A43F0800313610023184687
:102C8000BD4680BC704700BF0020024080B483B0C6
:102C900000AF78600B467B80084B0022DA61084B5E
:102CA0001B69074A43F0010313617B687A881A8025
:102CB00000BF0C37BD4680BC704700BFD804002061
:102CC0000020024080B584B000AF7860FFF726FE98
:102CD000F86010E07B68B3F1FF3F0CD07B68002BFD
:102CE00007D0FFF71BFE0246FB68D31A7A689A42A8
:102CF00001D2032325E0154BDB6803F00103002B11
:102D0000E8D1124BDB6803F02003002B02D00F4BFD
:102D10002022DA600D4BDB6803F01003002B0BD18F
:102D20000A4BDB6903F00103002B05D1074BDB687D
:102D300003F00403002B03D000F00AF8012300E0A5
:102D4000002318461037BD4680BD00BF002002405A
:102D500080B483B000AF00237B60234BDB6803F0BB
:102D60001003002B09D0214BDB6943F002031F4AFB
:102D7000D3617B6843F010037B601B4BDB6803F07F
:102D80000403002B09D0194BDB6943F00103174AF8
:102D9000D3617B6843F004037B60134BDB6903F072
:102DA0000103002B0BD0114BDB6943F004030F4AE6
:102DB000D3610D4BDB690C4A23F00103D3617B68BF
:102DC00040F20112934206D1074BDB69064A23F019
:102DD0000103D36102E0044A7B68D36000BF0C3773
:102DE000BD4680BC704700BF00200240D8040020D0
:102DF00080B584B000AF786039600123FB73002395
:102E0000BB602F4B1B7E012B01D1022353E02C4BC7
:102E100001221A767B681B68022B16D14CF25030C7
:102E2000FFF750FF0346002B41D1012000F04CF882
:102E30004CF25030FFF746FF0346FB73214B1B69F2
:102E4000204A23F00403136131E04CF25030FFF7C5
:102E500039FF0346002B2AD13B684FF0FF321A603E
:102E60007B689B68BB6019E0B86800F049F84CF2D9
:102E70005030FFF727FF0346FB73124B1B69114AC3
:102E800023F002031361FB7B002B03D03B68BA687D
:102E90001A600CE0BB6803F58063BB607B68DB688D
:102EA0009A027B689B681344BA689A42DCD3044B4D
:102EB00000221A76FB7B18461037BD4680BD00BF46
:102EC000D80400200020024080B483B000AF7860B6
:102ED000094B0022DA61094B1B69084A43F00403DD
:102EE0001361064B1B69054A43F04003136100BFA1
:102EF0000C37BD4680BC7047D8040020002002403B
:102F000080B483B000AF78600B4B0022DA610B4BCA
:102F10001B690A4A43F002031361084A7B68536144
:102F2000064B1B69054A43F04003136100BF0C3791
:102F3000BD4680BC704700BFD8040020002002407E
:102F400080B48BB000AF7860396000237B620023CF
:102F50003B6269E101227B6A02FA03F3FB613B6891
:102F60001B68FA691340BB61BA69FB699A4240F079
:102F700058813B685B689A4A93425ED0984A934274
:102F800075D8984A934258D0964A93426FD8964A39
:102F9000934252D0944A934269D8944A93424CD077
:102FA000924A934263D8924A934246D0904A9342BF
:102FB0005DD8122B2AD8122B59D801A252F823F02F
:102FC0003B30000815300008273000086930000841
:102FD0006F3000086F3000086F3000086F30000855
:102FE0006F3000086F3000086F3000086F30000845
:102FF0006F3000086F3000086F3000086F30000835
:103000006F3000081D30000831300008794A9342C3
:1030100013D02CE03B68DB683B6229E03B68DB684F
:1030200004333B6224E03B68DB6808333B621FE00B
:103030003B68DB680C333B621AE03B689B68002B03
:1030400002D104233B6213E03B689B68012B05D14E
:1030500008233B627B68FA691A6109E008233B6236
:103060007B68FA695A6103E000233B6200E000BF1D
:10307000BB69FF2B01D87B6801E07B6804337B616F
:10308000BB69FF2B02D87B6A9B0002E07B6A083B8E
:103090009B003B617B691A680F213B6901FA03F3CE
:1030A000DB431A40396A3B6901FA03F31A437B692F
:1030B0001A603B685B6803F08053002B00F0B1801E
:1030C0004D4B9B694C4A43F0010393614A4B9B690A
:1030D00003F00103BB60BB68484A7B6A9B0802336C
:1030E00052F82330FB607B6A03F003039B000F223E
:1030F00002FA03F3DB43FA681340FB607B68404A43
:10310000934213D07B683F4A93420DD07B683E4A7E
:10311000934207D07B683D4A934201D1032306E0E6
:10312000042304E0022302E0012300E000237A6A82
:1031300002F0030292009340FA681343FB602F49A8
:103140007B6A9B080233FA6841F823203B685B687E
:1031500003F48013002B06D02D4B9A682C49BB69D1
:1031600013438B6006E02A4B9A68BB69DB4328490E
:1031700013408B603B685B6803F40013002B06D0A0
:10318000234BDA682249BB691343CB6006E0204B2E
:10319000DA68BB69DB431E491340CB603B685B6860
:1031A00003F40033002B06D0194B5A681849BB6949
:1031B00013434B6006E0164B5A68BB69DB43144966
:1031C00013404B603B685B6803F48033002B21D0D5
:1031D0000F4B1A680E49BB6913430B6021E000BF17
:1031E00000003210000031100000221000002110F9
:1031F00000001210000011100010024000000140F9
:1032000000080140000C0140001001400014014082
:10321000000401400B4B1A68BB69DB4309491340AA
:103220000B607B6A01337B623B681A687B6A22FA17
:1032300003F3002B7FF48EAE00BF00BF2C37BD46DA
:1032400080BC70470004014080B485B000AF786056
:103250000B467B807B689A687B881340002B02D0EA
:103260000123FB7301E00023FB73FB7B184614373B
:10327000BD4680BC704780B483B000AF78600B4619
:103280007B8013467B707B78002B03D07A887B6829
:103290001A6103E07B881A047B681A6100BF0C374F
:1032A000BD4680BC704780B485B000AF78600B46E7
:1032B0007B807B68DB68FB607A88FB6813401A04BC
:1032C000FB68D9437B880B401A437B681A6100BFB7
:1032D0001437BD4680BC704780B584B000AF7860BD
:1032E0007B68002B01D1012334E07B681B684CF61E
:1032F000CC421A607B681B6845F255521A607B68A5
:103300001B687A6852685A607B681B687A689268A2
:103310009A60FFF703FBF8600FE0FFF7FFFA024641
:10332000FB68D31A272B08D97B681B68DB6803F07E
:103330000303002B01D003230CE07B681B68DB68D0
:1033400003F00303002BE8D17B681B684AF6AA222E
:103350001A60002318461037BD4680BD80B586B080
:1033600000AF78607B68002B01D1012372E27B689B
:103370001B6803F00103002B00F08780924B5B6811
:1033800003F00C03042B0CD08F4B5B6803F00C0391
:10339000082B12D18C4B5B6803F48033B3F5803F6C
:1033A0000BD1894B1B6803F40033002B6CD07B6876
:1033B0005B68002B68D101234CE27B685B68B3F546
:1033C000803F06D1804B1B687F4A43F480331360F3
:1033D0002EE07B685B68002B0CD17B4B1B687A4A24
:1033E00023F480331360784B1B68774A23F48023DF
:1033F00013601DE07B685B68B3F5A02F0CD1724BA6
:103400001B68714A43F4802313606F4B1B686E4A3C
:1034100043F4803313600BE06B4B1B686A4A23F460
:1034200080331360684B1B68674A23F48023136062
:103430007B685B68002B13D0FFF770FA386108E0F7
:10344000FFF76CFA02463B69D31A642B01D90323B8
:1034500000E25D4B1B6803F40033002BF0D014E056
:10346000FFF75CFA386108E0FFF758FA02463B695B
:10347000D31A642B01D90323ECE1534B1B6803F4EB
:103480000033002BF0D100E000BF7B681B6803F025
:103490000203002B63D04C4B5B6803F00C03002B42
:1034A0000BD0494B5B6803F00C03082B1CD1464B37
:1034B0005B6803F48033002B16D1434B1B6803F089
:1034C0000203002B05D07B681B69012B01D001236F
:1034D000C0E13D4B1B6823F0F8027B685B69DB00B1
:1034E000394913430B603AE07B681B69002B20D0FD
:1034F000364B01221A60FFF711FA386108E0FFF736
:103500000DFA02463B69D31A022B01D90323A1E12C
:103510002D4B1B6803F00203002BF0D02A4B1B68D5
:1035200023F0F8027B685B69DB00274913430B60DB
:1035300015E0264B00221A60FFF7F0F9386108E029
:10354000FFF7ECF902463B69D31A022B01D903239A
:1035500080E11D4B1B6803F00203002BF0D17B6858
:103560001B6803F00803002B3AD07B689B69002B93
:1035700019D0174B01221A60FFF7D0F9386108E023
:10358000FFF7CCF902463B69D31A022B01D903237A
:1035900060E10D4B5B6A03F00203002BF0D00120C9
:1035A00000F09CFA1CE00A4B00221A60FFF7B6F903
:1035B00038610FE0FFF7B2F902463B69D31A022BDC
:1035C00008D9032346E100BF001002400000424238
:1035D00080044242924B5B6A03F00203002BE9D164
:1035E0007B681B6803F00403002B00F0A680002317
:1035F000FB758B4BDB6903F08053002B0DD1884B9F
:10360000DB69874A43F08053D361854BDB6903F064
:103610008053BB60BB680123FB75824B1B6803F4BE
:103620008073002B18D17F4B1B687E4A43F4807354
:103630001360FFF773F9386108E0FFF76FF902468E
:103640003B69D31A642B01D9032303E1754B1B6833
:1036500003F48073002BF0D07B68DB68012B06D16C
:103660006F4B1B6A6E4A43F0010313622DE07B68C7
:10367000DB68002B0CD16A4B1B6A694A23F00103FB
:103680001362674B1B6A664A23F0040313621CE053
:103690007B68DB68052B0CD1614B1B6A604A43F0E9
:1036A000040313625E4B1B6A5D4A43F0010313621D
:1036B0000BE05B4B1B6A5A4A23F001031362584B21
:1036C0001B6A574A23F0040313627B68DB68002BF4
:1036D00015D0FFF723F938610AE0FFF71FF902461A
:1036E0003B69D31A41F28832934201D90323B1E0F6
:1036F0004B4B1B6A03F00203002BEED014E0FFF7E4
:103700000DF938610AE0FFF709F902463B69D31A5F
:1037100041F28832934201D903239BE0404B1B6A5C
:1037200003F00203002BEED1FB7D012B05D13C4BB6
:10373000DB693B4A23F08053D3617B68DB69002B54
:1037400000F08780364B5B6803F00C03082B61D0D8
:103750007B68DB69022B46D1334B00221A60FFF7EE
:10376000DDF8386108E0FFF7D9F802463B69D31A63
:10377000022B01D903236DE0294B1B6803F0007372
:10378000002BF0D17B681B6AB3F5803F08D1244B36
:103790005B6823F400327B689B68214913434B60CC
:1037A0001F4B5B6823F474127B68196A7B685B6A41
:1037B0000B431B4913434B601B4B01221A60FFF75D
:1037C000ADF8386108E0FFF7A9F802463B69D31A63
:1037D000022B01D903233DE0114B1B6803F000735A
:1037E000002BF0D035E0104B00221A60FFF796F85E
:1037F000386108E0FFF792F802463B69D31A022BC2
:1038000001D9032326E0064B1B6803F00073002B4D
:10381000F0D11EE07B68DB69012B07D1012319E0A1
:103820000010024000700040600042420B4B5B6899
:10383000FB60FB6803F480327B681B6A9A4206D106
:10384000FB6803F470127B685B6A9A4201D0012323
:1038500000E0002318461837BD4680BD0010024026
:1038600080B584B000AF786039607B68002B01D1EF
:103870000123D0E06A4B1B6803F007033A689A42C1
:1038800010D9674B1B6823F0070265493B68134357
:103890000B60634B1B6803F007033A689A4201D040
:1038A0000123B8E07B681B6803F00203002B20D0E3
:1038B0007B681B6803F00403002B05D0594B5B6841
:1038C000584A43F4E06353607B681B6803F00803C5
:1038D000002B05D0534B5B68524A43F4605353604E
:1038E000504B5B6823F0F0027B689B684D491343A3
:1038F0004B607B681B6803F00103002B40D07B68A2
:103900005B68012B07D1474B1B6803F40033002B86
:1039100015D101237FE07B685B68022B07D1414B07
:103920001B6803F00073002B09D1012373E03D4BAA
:103930001B6803F00203002B01D101236BE0394B1C
:103940005B6823F003027B685B68364913434B6076
:10395000FEF7E4FFF8600AE0FEF7E0FF0246FB68CE
:10396000D31A41F28832934201D9032353E02D4BFD
:103970005B6803F00C027B685B689B009A42EBD1AA
:10398000274B1B6803F007033A689A4210D2244B76
:103990001B6823F0070222493B6813430B60204B4E
:1039A0001B6803F007033A689A4201D0012332E012
:1039B0007B681B6803F00403002B08D0194B5B687D
:1039C00023F4E0627B68DB68164913434B607B6835
:1039D0001B6803F00803002B09D0124B5B6823F42B
:1039E00060527B681B69DB000E4913434B6000F09B
:1039F00021F802460B4B5B681B0903F00F030A49D1
:103A0000CB5C22FA03F3094A1360094B1B68184682
:103A1000FEF742FF002318461037BD4680BD00BFA9
:103A20000020024000100240244500084000002011
:103A30004400002080B487B000AF0023FB60002367
:103A4000BB6000237B6100237B6000233B611E4B36
:103A50005B68FB60FB6803F00C03042B02D0082BAF
:103A600003D027E0194B3B6127E0FB689B0C03F078
:103A70000F03174AD35C7B60FB6803F48033002B91
:103A800010D0114B5B685B0C03F00103114AD35C4F
:103A9000BB607B680D4A03FB02F2BB68B2FBF3F329
:103AA0007B6104E07B680C4A02FB03F37B617B696A
:103AB0003B6102E0054B3B6100BF3B6918461C3788
:103AC000BD4680BC704700BF0010024000127A0063
:103AD000344500084445000800093D0080B485B025
:103AE00000AF78600A4B1B680A4AA2FB03235B0AFB
:103AF0007A6802FB03F3FB6000BFFB685A1EFA60A2
:103B0000002BF9D100BF00BF1437BD4680BC704701
:103B100040000020D34D621080B582B000AF7860C5
:103B20007B68002B01D1012376E07B685B6A002B68
:103B300008D17B685B68B3F5827F09D07B6800227F
:103B4000DA6105E07B6800221A617B6800225A6115
:103B50007B6800229A627B6893F85130DBB2002BBD
:103B600006D17B68002283F850207868FEF7C2FDFA
:103B70007B68022283F851207B681B681A687B6887
:103B80001B6822F040021A607B685B6803F4827253
:103B90007B689B6803F404431A437B68DB6803F487
:103BA00000631A437B681B6903F002031A437B68B6
:103BB0005B6903F001031A437B689B6903F400739C
:103BC0001A437B68DB6903F038031A437B681B6A7E
:103BD00003F0800342EA03017B689B6A03F400520E
:103BE0007B681B680A431A607B689B691A0C7B68B8
:103BF0001B6802F004025A607B681B68DA697B6804
:103C00001B6822F40062DA617B6800225A657B68D7
:103C1000012283F85120002318460837BD4680BD95
:103C200080B588B000AFF860B9603B601346FB8098
:103C30000023FB77FB6893F85030012B01D102235E
:103C40002DE1FB68012283F85020FEF767FEB86182
:103C5000FB88FB82FB6893F85130DBB2012B02D06A
:103C60000223FB7716E1BB68002B02D0FB88002BF8
:103C700002D10123FB770DE1FB68032283F8512079
:103C8000FB6800225A65FB68BA681A63FB68FA8809
:103C90009A86FB68FA88DA86FB6800229A63FB68DA
:103CA00000229A87FB680022DA87FB6800225A64A8
:103CB000FB6800221A64FB689B68B3F5004F0FD1C4
:103CC000FB681B681A68FB681B6822F040021A60D8
:103CD000FB681B681A68FB681B6842F480421A6024
:103CE000FB681B681B6803F04003402B07D0FB6890
:103CF0001B681A68FB681B6842F040021A60FB6888
:103D0000DB68B3F5006F4FD1FB685B68002B02D016
:103D1000FB8A012B42D1FB681B6B1A88FB681B686E
:103D2000DA60FB681B6B9A1CFB681A63FB68DB8E0E
:103D30009BB2013B9AB2FB68DA862FE0FB681B68F6
:103D40009B6803F00203022B12D1FB681B6B1A88DD
:103D5000FB681B68DA60FB681B6B9A1CFB681A63C4
:103D6000FB68DB8E9BB2013B9AB2FB68DA8615E0FA
:103D7000FEF7D4FD0246BB69D31A3A689A4203D8CB
:103D80003B68B3F1FF3F02D13B68002B06D1032310
:103D9000FB77FB68012283F851207BE0FB68DB8E18
:103DA0009BB2002BCAD150E0FB685B68002B02D0AD
:103DB000FB8A012B44D1FB681A6BFB681B680C3330
:103DC00012781A70FB681B6B5A1CFB681A63FB683D
:103DD000DB8E9BB2013B9AB2FB68DA8630E0FB686F
:103DE0001B689B6803F00203022B13D1FB681A6B5C
:103DF000FB681B680C3312781A70FB681B6B5A1C2B
:103E0000FB681A63FB68DB8E9BB2013B9AB2FB68CE
:103E1000DA8615E0FEF782FD0246BB69D31A3A68DE
:103E20009A4203D83B68B3F1FF3F02D13B68002BB5
:103E300006D10323FB77FB68012283F8512029E098
:103E4000FB68DB8E9BB2002BC9D1BA693968F86870
:103E500000F06EFA0346002B02D0FB6820225A6560
:103E6000FB689B68002B0AD100233B61FB681B6841
:103E7000DB683B61FB681B689B683B613B69FB68D7
:103E80005B6D002B02D00123FB7703E0FB6801226E
:103E900083F85120FB68002283F85020FB7F1846EE
:103EA0002037BD4680BD80B58CB000AFF860B960EA
:103EB0007A607B800123FB62002387F82B30FB684C
:103EC00093F85030012B01D1022398E1FB680122C5
:103ED00083F85020FEF722FD7862FB6893F851309A
:103EE00087F82330FB685B68FB617B887B8397F8EE
:103EF0002330012B0FD0FB69B3F5827F07D1FB681C
:103F00009B68002B03D197F82330042B03D00223A6
:103F100087F82B306DE1BB68002B05D07B68002B48
:103F200002D07B88002B03D1012387F82B3060E17E
:103F3000FB6893F85130DBB2042B03D0FB680522F9
:103F400083F85120FB6800225A65FB687A689A63FF
:103F5000FB687A88DA87FB687A889A87FB68BA6890
:103F60001A63FB687A88DA86FB687A889A86FB6827
:103F700000221A64FB6800225A64FB681B681B68F5
:103F800003F04003402B07D0FB681B681A68FB68EE
:103F90001B6842F040021A60FB68DB68B3F5006FF3
:103FA0007CD1FB685B68002B02D07B8B012B6AD134
:103FB000FB681B6B1A88FB681B68DA60FB681B6B6D
:103FC0009A1CFB681A63FB68DB8E9BB2013B9AB2BA
:103FD000FB68DA8657E0FB681B689B6803F0020306
:103FE000022B1BD1FB68DB8E9BB2002B16D0FB6A29
:103FF000012B13D1FB681B6B1A88FB681B68DA6006
:10400000FB681B6B9A1CFB681A63FB68DB8E9BB218
:10401000013B9AB2FB68DA860023FB62FB681B68EF
:104020009B6803F00103012B19D1FB68DB8F9BB266
:10403000002B14D0FB681B68DA68FB689B6B92B29C
:104040001A80FB689B6B9A1CFB689A63FB68DB8F8A
:104050009BB2013B9AB2FB68DA870123FB62FEF751
:104060005DFC02467B6AD31ABA6B9A420BD8BB6BD3
:10407000B3F1FF3F07D0032387F82B30FB68012201
:1040800083F85120B5E0FB68DB8E9BB2002BA2D1F8
:10409000FB68DB8F9BB2002B9DD180E0FB685B68E7
:1040A000002B02D07B8B012B6FD1FB681A6BFB6856
:1040B0001B680C3312781A70FB681B6B5A1CFB6868
:1040C0001A63FB68DB8E9BB2013B9AB2FB68DA860F
:1040D0005BE0FB681B689B6803F00203022B1CD1AA
:1040E000FB68DB8E9BB2002B17D0FB6A012B14D12F
:1040F000FB681A6BFB681B680C3312781A70FB683C
:104100001B6B5A1CFB681A63FB68DB8E9BB2013B7E
:104110009AB2FB68DA860023FB62FB681B689B6827
:1041200003F00103012B19D1FB68DB8F9BB2002B3D
:1041300014D0FB681B68DA68FB689B6BD2B21A70FC
:10414000FB689B6B5A1CFB689A63FB68DB8F9BB216
:10415000013B9AB2FB68DA870123FB62FEF7DEFBC4
:1041600002467B6AD31ABA6B9A4203D8BB6BB3F18F
:10417000FF3F02D1BB6B002B07D1032387F82B3005
:10418000FB68012283F8512033E0FB68DB8E9BB291
:10419000002B9ED1FB68DB8F9BB2002B99D17A6AF2
:1041A000B96BF86800F0C4F80346002B06D0012371
:1041B00087F82B30FB6820225A651AE0FB689B6861
:1041C000002B0AD100237B61FB681B68DB687B61E5
:1041D000FB681B689B687B617B69FB685B6D002BE0
:1041E00003D0012387F82B3003E0FB68012283F81A
:1041F0005120FB68002283F8502097F82B30184696
:104200003037BD4680BD80B483B000AF78607B6836
:1042100093F85130DBB218460C37BD4680BC70476E
:1042200080B588B000AFF860B9603B601346FB71A1
:10423000FEF774FB0246BB6A9B1A3A681344FB61A3
:10424000FEF76CFBB861394B1B685B011B0DFA690B
:1042500002FB03F37B6154E03B68B3F1FF3F50D0B6
:10426000FEF75CFB0246BB69D31AFA699A4202D98F
:10427000FB69002B3DD1FB681B685A68FB681B6813
:1042800022F0E0025A60FB685B68B3F5827F11D1CF
:10429000FB689B68B3F5004F04D0FB689B68B3F5DF
:1042A000806F07D1FB681B681A68FB681B6822F0E7
:1042B00040021A60FB689B6AB3F5005F0FD1FB6890
:1042C0001B681A68FB681B6822F400521A60FB68BE
:1042D0001B681A68FB681B6842F400521A60FB688E
:1042E000012283F85120FB68002283F85020032329
:1042F00017E07B69002B01D10023FB617B69013B47
:104300007B61FB681B689A68BB681340BA689A4275
:104310000CBF01230023DBB21A46FB799A429BD1E2
:10432000002318462037BD4680BD00BF4000002056
:1043300080B586B002AFF860B9607A607B680093A0
:10434000BB6800228021F868FFF76AFF0346002B54
:1043500007D0FB685B6D43F02002FB685A650323BE
:1043600000E0002318461037BD4680BD03460244D6
:10437000934200D1704703F8011BF9E770B500269E
:104380000C4D0D4C641BA410A64209D100F028F876
:1043900000260A4D0A4C641BA410A64205D170BD2C
:1043A00055F8043B98470136EEE755F8043B98472B
:1043B0000136F2E750450008504500085045000816
:1043C000544500080A44914200F1FF3300D1704780
:1043D00010B511F8014B914203F8014FF9D110BD0E
:1043E000F8B500BFF8BC08BC9E467047F8B500BFE2
:0843F000F8BC08BC9E467047B2
:1043F800FFFCF9F6060708090A0B0C000001020386
:104408000405060708090000010203040100000072
:10441800637C777BF26B6FC53001672BFED7AB7679
:10442800CA82C97DFA5947F0ADD4A2AF9CA472C024
:10443800B7FD9326363FF7CC34A5E5F171D8311591
:1044480004C723C31896059A071280E2EB27B275B2
:1044580009832C1A1B6E5AA0523BD6B329E32F842A
:1044680053D100ED20FCB15B6ACBBE394A4C58CF22
:10447800D0EFAAFB434D338545F9027F503C9FA8F6
:1044880051A3408F929D38F5BCB6DA2110FFF3D2C4
:10449800CD0C13EC5F974417C4A77E3D645D197378
:1044A80060814FDC222A908846EEB814DE5E0BDB72
:1044B800E0323A0A4906245CC2D3AC629195E479A9
:1044C800E7C8376D8DD54EA96C56F4EA657AAE0803
:1044D800BA78252E1CA6B4C6E8DD741F4BBD8B8A9E
:1044E800703EB5664803F60E613557B986C11D9E04
:1044F800E1F8981169D98E949B1E87E9CE5528DF7B
:104508008CA1890DBFE6426841992D0FB054BB16A6
:104518008D01020408102040801B360000000000B6
:10452800000000000102030406070809020304054D
:10453800060708090A0B0C0D0E0F101001020000E7
:0845480038BCFF7F01000000F8
:044550003501000829
:044554001101000849
:104558002B7E151628AED2A6ABF7158809CF4F3C8F
:10456800000102030405060708090A0B0C0D0E0FCB
:104578002B7E151628AED2A6ABF7158809CF4F3C6F
:10458800000102030405060708090A0B0C0D0E0FAB
:0C4598000024F4001000000001000000EE
:04000005080027E5E3
:00000001FF
