:020000040800F2
:105000000050002091870008A5860008AB860008A4
:10501000B3860008B9860008BF86000800000000BB
:10502000000000000000000000000000C58600082D
:10503000D186000800000000DD860008E98600082F
:10504000D9870008D9870008D9870008D9870008C0
:10505000D9870008D9870008D9870008F586000895
:10506000D9870008D9870008D9870008D9870008A0
:10507000D9870008D9870008D9870008D987000890
:10508000D9870008D9870008D9870008D987000880
:10509000D9870008D9870008D9870008D987000870
:1050A000D9870008D9870008D9870008D987000860
:1050B00005870008D9870008D9870008D987000824
:1050C000D9870008D9870008D9870008D987000840
:1050D000D9870008D9870008D9870008D987000830
:1050E000D9870008D9870008D98700080000000088
:1050F00000000000000000000000000000000000B0
:0C51000000000000000000005FF808F153
:1051100010B5054C237833B9044B13B10448AFF3F1
:1051200000800123237010BD9000002000000000CB
:1051300068C6000808B5034B1BB103490348AFF329
:10514000008008BD000000009400002068C6000830
:105150004FF0FF0C1CEAD0521EBF1CEAD15392EA5A
:105160000C0F93EA0C0F6FD01A4480EA010C400236
:1051700018BF5FEA41211ED04FF0006343EA501090
:1051800043EA5111A0FB01310CF00040B1F5000FD2
:105190003EBF490041EAD3715B0040EA010062F181
:1051A0007F02FD2A1DD8B3F1004F40EBC25008BF6B
:1051B00020F00100704790F0000F0CF0004C08BF89
:1051C00049024CEA502040EA51207F3AC2BFD2F156
:1051D000FF0340EAC250704740F400004FF0000364
:1051E000013A5DDC12F1190FDCBF00F0004070479E
:1051F000C2F10002410021FA02F1C2F1200200FADC
:1052000002FC5FEA310040F1000053EA4C0308BFA2
:1052100020EADC70704792F0000F00F0004C02BFF3
:10522000400010F4000F013AF9D040EA0C0093F06E
:10523000000F01F0004C02BF490011F4000F013BC8
:10524000F9D041EA0C018FE70CEAD15392EA0C0F36
:1052500018BF93EA0C0F0AD030F0004C18BF31F0A1
:10526000004CD8D180EA010000F00040704790F077
:10527000000F17BF90F0004F084691F0000F91F01B
:10528000004F14D092EA0C0F01D142020FD193EAE1
:105290000C0F03D14B0218BF084608D180EA010069
:1052A00000F0004040F0FE4040F40000704740F045
:1052B000FE4040F44000704781F0004102E000BF32
:1052C00083F0004330B54FEA41044FEA430594EAC6
:1052D000050F08BF90EA020F1FBF54EA000C55EA01
:1052E000020C7FEA645C7FEA655C00F0E2804FEAD2
:1052F0005454D4EB5555B8BF6D420CDD2C4480EAB4
:10530000020281EA030382EA000083EA010180EAE3
:10531000020281EA0303362D88BF30BD11F0004F31
:105320004FEA01314FF4801C4CEA113102D0404267
:1053300061EB410113F0004F4FEA03334CEA1333A2
:1053400002D0524263EB430394EA050F00F0A780BA
:10535000A4F10104D5F1200E0DDB02FA0EFC22FAB5
:1053600005F2801841F1000103FA0EF2801843FAA9
:1053700005F359410EE0A5F120050EF1200E012A9A
:1053800003FA0EFC28BF4CF0020C43FA05F3C018D8
:1053900051EBE37101F0004507D54FF0000EDCF151
:1053A000000C7EEB00006EEB0101B1F5801F1BD3FA
:1053B000B1F5001F0CD349085FEA30004FEA3C0CFE
:1053C00004F101044FEA445212F5800F80F09A80F4
:1053D000BCF1004F08BF5FEA500C50F1000041EBF8
:1053E000045141EA050130BD5FEA4C0C404141EBFC
:1053F0000101013C28BFB1F5801FE9D291F0000FF7
:1054000004BF01460020B1FA81F308BF2033A3F1A5
:105410000B03B3F120020CDA0C3208DD02F1140C9C
:10542000C2F10C0201FA0CF021FA02F10CE002F1D7
:105430001402D8BFC2F1200C01FA02F120FA0CFCD0
:10544000DCBF41EA0C019040E41AA2BF01EB045119
:10545000294330BD6FEA04041F3C1CDA0C340EDC17
:1054600004F11404C4F1200220FA04F001FA02F35A
:1054700040EA030021FA04F345EA030130BDC4F118
:105480000C04C4F1200220FA02F001FA04F340EA0D
:105490000300294630BD21FA04F0294630BD94F0BE
:1054A000000F83F4801306BF81F480110134013DA5
:1054B0004EE77FEA645C18BF7FEA655C29D094EA16
:1054C000050F08BF90EA020F05D054EA000C04BF94
:1054D0001946104630BD91EA030F1EBF002100207F
:1054E00030BD5FEA545C05D14000494128BF41F01E
:1054F000004130BD14F580043CBF01F5801130BD82
:1055000001F0004545F0FE4141F470014FF000000C
:1055100030BD7FEA645C1ABF194610467FEA655CBD
:105520001CBF0B46024650EA013406BF52EA03355F
:1055300091EA030F41F4002130BD00BF90F0000F4D
:1055400004BF0021704730B54FF4806404F1320489
:105550004FF000054FF0000150E700BF90F0000F42
:1055600004BF0021704730B54FF4806404F1320469
:1055700010F0004548BF40424FF000013EE700BF39
:1055800042004FEAE2014FEA31014FEA02701FBFC9
:1055900012F07F4393F07F4F81F06051704732F0FB
:1055A0007F4208BF704793F07F4F04BF41F4002152
:1055B000704730B54FF4607401F0004521F00041B0
:1055C0001CE700BF50EA010208BF704730B54FF03A
:1055D00000050AE050EA010208BF704730B511F03B
:1055E000004502D5404261EB41014FF4806404F173
:1055F00032045FEA915C3FF4D8AE4FF003025FEAF9
:10560000DC0C18BF03325FEADC0C18BF033202EB7C
:10561000DC02C2F1200300FA03FC20FA02F001FAD6
:1056200003FE40EA0E0021FA02F11444BDE600BF79
:1056300070B54FF0FF0C4CF4E06C1CEA11541DBF28
:105640001CEA135594EA0C0F95EA0C0F00F0DEF8F3
:105650002C4481EA030621EA4C5123EA4C5350EAD8
:10566000013518BF52EA033541F4801143F4801329
:1056700038D0A0FB02CE4FF00005E1FB02E506F0BA
:105680000042E0FB03E54FF00006E1FB03569CF00F
:10569000000F18BF4EF0010EA4F1FF04B6F5007F15
:1056A00064F5407404D25FEA4E0E6D4146EB060687
:1056B00042EAC62141EA55514FEAC52040EA5E5010
:1056C0004FEACE2EB4F1FD0C88BFBCF5E06F1ED8BA
:1056D000BEF1004F08BF5FEA500E50F1000041EBF1
:1056E000045170BD06F0004646EA010140EA02009E
:1056F00081EA0301B4EB5C04C2BFD4EB0C0541EAC0
:10570000045170BD41F480114FF0000E013C00F3D4
:10571000AB8014F1360FDEBF002001F0004170BDF8
:10572000C4F10004203C35DA0C341BDC04F1140411
:10573000C4F1200500FA05F320FA04F001FA05F29D
:1057400040EA020001F0004221F0004110EBD3706A
:1057500021FA04F642EB06015EEA430E08BF20EA96
:10576000D37070BDC4F10C04C4F1200500FA04F339
:1057700020FA05F001FA04F240EA020001F00041CB
:1057800010EBD37041F100015EEA430E08BF20EA3E
:10579000D37070BDC4F1200500FA05F24EEA020E86
:1057A00020FA04F301FA05F243EA020321FA04F0B5
:1057B00001F0004121FA04F220EA020000EBD3706C
:1057C0005EEA430E08BF20EAD37070BD94F0000F6C
:1057D0000FD101F00046400041EB010111F4801FA0
:1057E00008BF013CF7D041EA060195F0000F18BF51
:1057F000704703F00046520043EB030313F4801F8D
:1058000008BF013DF7D043EA0603704794EA0C0F46
:105810000CEA135518BF95EA0C0F0CD050EA41065C
:1058200018BF52EA4306D1D181EA030101F00041D9
:105830004FF0000070BD50EA410606BF1046194601
:1058400052EA430619D094EA0C0F02D150EA01360D
:1058500013D195EA0C0F05D152EA03361CBF10464E
:1058600019460AD181EA030101F0004141F0FE41ED
:1058700041F470014FF0000070BD41F0FE4141F471
:10588000780170BD70B54FF0FF0C4CF4E06C1CEA71
:1058900011541DBF1CEA135594EA0C0F95EA0C0F26
:1058A00000F0A7F8A4EB050481EA030E52EA0335E1
:1058B0004FEA013100F088804FEA03334FF0805502
:1058C00045EA131343EA12634FEA022245EA11152F
:1058D00045EA10654FEA00260EF000419D4208BFE0
:1058E000964244F1FD0404F5407402D25B084FEA8D
:1058F0003202B61A65EB03055B084FEA32024FF439
:1059000080104FF4002CB6EB020E75EB030E22BF95
:10591000B61A754640EA0C005B084FEA3202B6EB55
:10592000020E75EB030E22BFB61A754640EA5C0004
:105930005B084FEA3202B6EB020E75EB030E22BF94
:10594000B61A754640EA9C005B084FEA3202B6EB95
:10595000020E75EB030E22BFB61A754640EADC0054
:1059600055EA060E18D04FEA051545EA16754FEAB6
:1059700006164FEAC30343EA52734FEAC2025FEAD4
:105980001C1CC0D111F4801F0BD141EA00014FF063
:1059900000004FF0004CB6E711F4801F04BF014334
:1059A0000020B4F1FD0C88BFBCF5E06F3FF6AFAE50
:1059B000B5EB030C04BFB6EB020C5FEA500C50F1E0
:1059C000000041EB045170BD0EF0004E4EEA113163
:1059D00014EB5C04C2BFD4EB0C0541EA045170BD6A
:1059E00041F480114FF0000E013C90E645EA060EAE
:1059F0008DE60CEA135594EA0C0F08BF95EA0C0FDC
:105A00003FF43BAF94EA0C0F0AD150EA01347FF423
:105A100034AF95EA0C0F7FF425AF104619462CE7FA
:105A200095EA0C0F06D152EA03353FF4FDAE10465D
:105A3000194622E750EA410618BF52EA43067FF4AE
:105A4000C5AE50EA41047FF40DAF52EA43057FF43E
:105A5000EBAE12E74FEA4102B2F1E04324BFB3F5E7
:105A6000001CDCF1FE5C0DD901F0004C4FEAC002D5
:105A70004CEA5070B2F1004F40EB830008BF20F0B9
:105A80000100704711F0804F21D113F13872BCBF73
:105A900001F00040704741F480114FEA5252C2F1C8
:105AA0001802C2F1200C10FA0CF320FA02F018BF11
:105AB00040F001004FEAC1234FEAD32303FA0CFC64
:105AC00040EA0C0023FA02F34FEA4303CCE77FEAF3
:105AD000625307D150EA01331EBF4FF0FE4040F43D
:105AE0004000704701F0004040F0FE4040F40000EC
:105AF000704700BF80F0004002E000BF81F000412D
:105B000042001FBF5FEA410392EA030F7FEA226C63
:105B10007FEA236C6AD04FEA1262D2EB1363C1BFF3
:105B2000D218414048404140B8BF5B42192B88BF62
:105B3000704710F0004F40F4000020F07F4018BF85
:105B4000404211F0004F41F4000121F07F4118BFA5
:105B5000494292EA030F3FD0A2F1010241FA03FC4D
:105B600010EB0C00C3F1200301FA03F100F0004335
:105B700002D5494260EB4000B0F5000F13D3B0F1FD
:105B8000807F06D340084FEA310102F10102FE2A6C
:105B900051D2B1F1004F40EBC25008BF20F00100DC
:105BA00040EA03007047490040EB0000013A28BF7B
:105BB000B0F5000FEDD2B0FA80FCACF1080CB2EBFE
:105BC0000C0200FA0CF0AABF00EBC250524218437C
:105BD000BCBFD0401843704792F0000F81F4000121
:105BE00006BF80F400000132013BB5E74FEA4103F4
:105BF0007FEA226C18BF7FEA236C21D092EA030F60
:105C000004D092F0000F08BF0846704790EA010FD9
:105C10001CBF0020704712F07F4F04D1400028BF06
:105C200040F00040704712F100723CBF00F50000E8
:105C3000704700F0004343F0FE4040F4000070471E
:105C40007FEA226216BF08467FEA236301464202CA
:105C500006BF5FEA412390EA010F40F480007047DD
:105C60004FF0000304E000BF10F0004348BF404283
:105C70005FEA000C08BF704743F0964301464FF0BF
:105C800000001CE050EA010208BF70474FF000031B
:105C90000AE000BF50EA010208BF704711F000435C
:105CA00002D5404261EB41015FEA010C02BF84462C
:105CB0000146002043F0B64308BFA3F18053A3F58B
:105CC0000003BCFA8CF2083AA3EBC25310DB01FAD2
:105CD00002FC634400FA02FCC2F12002BCF1004F56
:105CE00020FA02F243EB020008BF20F001007047E7
:105CF00002F1200201FA02FCC2F1200250EA4C003B
:105D000021FA02F243EB020008BF20EADC70704780
:105D10004FEA4002B2F1FE4F0FD34FF09E03B3EBB8
:105D200012620DD94FEA002343F0004310F0004FF8
:105D300023FA02F018BF404270474FF0000070474E
:105D400012F1610F01D1420205D110F0004008BFED
:105D50006FF0004070474FF00000704742000ED2D5
:105D6000B2F1FE4F0BD34FF09E03B3EB126209D496
:105D70004FEA002343F0004323FA02F070474FF04C
:105D80000000704712F1610F01D1420202D14FF0C1
:105D9000FF3070474FF00000704700BF53B94AB959
:105DA000002908BF00281CBF4FF0FF314FF0FF3023
:105DB00000F072B9ADF1080C6DE904CE00F006F800
:105DC000DDF804E0DDE9022304B070472DE9F04777
:105DD000089E0D4604468E46002B4CD18A429446BE
:105DE00067D9B2FA82F353B102FA03FCC3F120027D
:105DF00001FA03FE20FA02F242EA0E0E9C404FEA3C
:105E00001C47BEFBF7F11FFA8CF507FB11EE01FBF7
:105E100005F0220C42EA0E4290420AD91CEB020223
:105E200001F1FF3E80F01981904240F21681023963
:105E30006244121AB2FBF7F007FB102200FB05F5D3
:105E4000A4B244EA0244A5420AD91CEB040400F1BE
:105E5000FF3280F00481A54240F20181644402389F
:105E600040EA01400021641B1EB1DC400023C6E96A
:105E70000043BDE8F0878B4208D9002E00F0EA808D
:105E80000021C6E900050846BDE8F087B3FA83F1B2
:105E9000002948D1AB4202D3824200F2F880841A32
:105EA00065EB030201209646002EE2D0C6E9004EC3
:105EB000DFE702B9FFDEB2FA82F3002B40F08E80FA
:105EC000881A0121170C1FFA82FEB0FBF7F507FBB9
:105ED0001500220C42EA00420EFB05F0904208D960
:105EE0001CEB020205F1FF3802D2904200F2CC8096
:105EF0004546121AB2FBF7F007FB10220EFB00FE1C
:105F0000A4B244EA0244A64508D91CEB040400F1FB
:105F1000FF3202D2A64500F2B4801046A4EB0E0474
:105F200040EA0540A0E7C1F120078B4022FA07FCB8
:105F30004CEA030C25FA07FA4FEA1C49BAFBF9F8B8
:105F40008D4020FA07F309FB18AA1FFA8CFE2B4399
:105F500000FA01F508FB0EF01C0C44EA0A44A042CA
:105F600002FA01F20BD91CEB040408F1FF3A80F0AD
:105F70008680A04240F28380A8F102086444241A7B
:105F800098B2B4FBF9F309FB134403FB0EFE40EA9D
:105F90000444A64508D91CEB040403F1FF306AD27F
:105FA000A64568D9023B644443EA0840A0FB02933B
:105FB000A4EB0E049C42C8469E4654D351D0002EFA
:105FC00067D0B5EB080364EB0E04CB4004FA07F787
:105FD0001F43CC40C6E9007400214AE702FA03FCE3
:105FE000C3F12000C1409D4024FA00F04FEA1C4755
:105FF0002843B1FBF7F507FB15111FFA8CFE020CC5
:1060000042EA014205FB0EF1914204FA03F408D979
:106010001CEB020205F1FF382FD291422DD9023D2F
:106020006244521AB2FBF7F107FB112280B240EA38
:10603000024001FB0EF2824208D91CEB000001F184
:10604000FF3816D2824214D902396044801A41EADC
:1060500005413AE7314630460BE77146E9E610461E
:10606000FEE64D45ABD2B9EB020863EB0C0E0138EE
:10607000A5E74146EAE7034696E74546D1E7D0461D
:106080007DE76444023849E7023D624431E708464F
:106090000AE73146EDE600BF704700BF80B483B029
:1060A00000AF0346FB80084B1B6800225A6200BF0A
:1060B000054B1B685A6AFB889A42F9D300BF00BFA0
:1060C0000C37BD4680BC7047B006002080B586B056
:1060D00000AF0023FB753B1D00221A605A609A60D6
:1060E000DA6020237B600123BB6002233B61002335
:1060F000FB603B1D19462A4803F048F90022202185
:10610000274803F0DEFA142002F0CAFB0122202106
:10611000234803F0D6FA1E20FFF7C0FF0023BB6020
:106120000123FB603B1D19461D4803F02FF9282071
:10613000FFF7B4FF20211A4803F0ACFA0346002B06
:106140000BD15020FFF7AAFF2021154803F0A2FA37
:106150000346002B01D00123FB7502F097FB034699
:10616000104A136002F092FB03460F4A136004E0EA
:1061700002F08CFB03460C4A13602021084803F010
:1061800089FA0346002B06D0064B1B689A1C064B67
:106190001B689A42ECD8FB7D18461837BD4680BD77
:1061A000000C0140AC000020B000002080B582B09F
:1061B00000AF0023BB710023FB7163E002F066FBBC
:1061C0000346344A136002F061FB0346324A13600F
:1061D00004E002F05BFB03462F4A136020212F48A6
:1061E00003F058FA0346002B06D12A4B1B689A1C71
:1061F000294B1B689A42ECD82820FFF74FFF20213B
:10620000264803F047FA0346002B0ED1FB79C3F171
:106210000703012202FA03F35BB2DB435AB297F998
:10622000063013405BB2BB710BE0FB79C3F107038F
:10623000012202FA03F35AB297F9063013435BB214
:10624000BB7102F023FB0346124A136002F01EFBEF
:106250000346114A136004E002F018FB03460E4A9D
:10626000136020210D4803F015FA0346002B06D0D9
:10627000084B1B689A1C084B1B689A42ECD8FB79A8
:106280000133FB71FB79072B98D9BB791846083786
:10629000BD4680BDAC000020B0000020000C0140D5
:1062A00080B582B000AF00F037FA44F620630122D7
:1062B00078215B4803F090FC0346002B01D00023BB
:1062C000A9E040F6C4137B6002E07B68013B7B6081
:1062D0007B68002BF9D1AE220021782000F096FADD
:1062E00020220021782000F091FA1022002178204D
:1062F00000F08CFAB0220021782000F087FAC82242
:106300000021782000F082FA00220021782000F09D
:106310007DFA10220021782000F078FA4022002136
:10632000782000F073FA81220021782000F06EFAC4
:10633000FF220021782000F069FAA12200217820B4
:1063400000F064FAA6220021782000F05FFAA8226B
:106350000021782000F05AFA3F220021782000F036
:1063600055FAA4220021782000F050FAD32200210F
:10637000782000F04BFA00220021782000F046FA45
:10638000D5220021782000F041FAF0220021782067
:1063900000F03CFAD9220021782000F037FA2222BE
:1063A0000021782000F032FADA220021782000F073
:1063B0002DFA12220021782000F028FADB22002199
:1063C000782000F023FA20220021782000F01EFA25
:1063D0008D220021782000F019FA14220021782063
:1063E00000F014FAAF220021782000F00FFA2E22DC
:1063F0000021782000F00AFA002000F047F800F0B1
:1064000013F8084B00221A80064B00225A80054BD5
:1064100001225A71012318460837BD4680BD00BFCE
:1064200004060020D404002080B582B000AF002311
:10643000FB7121E0FB79503BDBB21A46002178204A
:1064400000F0E4F900220021782000F0DFF91022AA
:106450000021782000F0DAF9FA7913465B01134441
:106460009B001A46084B1A4484234021782000F0F0
:1064700067F9FB790133FB71FB79072BDAD900BF90
:1064800000BF0837BD4680BDB400002080B582B093
:1064900000AF0346FB71FB79002B01D1002300E024
:1064A000FF234FF484621946034805F04BFC00BFFC
:1064B0000837BD4680BD00BFB400002090B482B054
:1064C00000AF0346FB800B46BB801346FB70FB8886
:1064D000832B54D8BB883F2B51D82B4B1B79002BD7
:1064E00006D0FB78002B0CBF01230023DBB2FB702E
:1064F000FB78012B20D1FA88BB88DB0898B20146D3
:106500000B465B010B449B001344204AD35C5AB2F8
:10651000BB8803F00703012101FA03F35BB21343C5
:106520005CB2FA8801460B465B010B449B001344A6
:10653000E1B2164AD15423E0FA88BB88DB0898B24E
:1065400001460B465B010B449B0013440F4AD35C8E
:106550005AB2BB8803F00703012101FA03F35BB2CF
:10656000DB435BB213405CB2FA8801460B465B0129
:106570000B449B001344E1B2044AD15400E000BF35
:106580000837BD4690BC7047D4040020B4000020FA
:1065900080B483B000AF03460A46FB801346BB803D
:1065A000054AFB881380044ABB88538000BF0C3720
:1065B000BD4680BC704700BFD404002080B586B0C3
:1065C00000AF03463960FB711346BB713A4B1B8821
:1065D0001A463B681B781344832B07DC364B5B88D9
:1065E0001A463B685B7813443F2B01DD00235EE0D5
:1065F00000237B614BE03B685A68FB79203B39689C
:10660000497801FB03F319467B690B445B00134493
:106610001B88FB6000233B6130E0FA683B6902FAAB
:1066200003F303F40043002B10D0234B1A883B697B
:106630009BB2134498B2204B5A887B699BB2134497
:106640009BB2BA791946FFF739FF14E01A4B1A8842
:106650003B699BB2134498B2174B5A887B699BB233
:10666000134499B2BB79002B0CBF01230023DBB28A
:106670001A46FFF723FF3B6901333B613B681B78F8
:106680001A463B699342C8D37B6901337B613B68FF
:106690005B781A467B699342ADD3074B1A883B68F7
:1066A0001B789BB213449AB2034B1A80FB791846AD
:1066B0001837BD4680BD00BFD404002080B584B02B
:1066C00000AFF860B9601346FB7112E0FB681B78FD
:1066D000FA79B9681846FFF771FF03461A46FB6856
:1066E0001B789A4202D0FB681B7808E0FB680133F4
:1066F000FB60FB681B78002BE8D1FB681B78184611
:106700001037BD4680BD80B500AF0020FFF7BEFE4C
:10671000FFF78AFE00BF80BD80B483B000AF074B97
:106720007B6002E07B68013B7B607B68002BF9D1DA
:1067300000BF00BF0C37BD4680BC704790D003003F
:1067400090B5C7B002AF0446084607F58871A1F5B9
:1067500088710A60194607F58873A3F20913224667
:106760001A7007F58873A3F5857302461A7007F54A
:106770008873A3F586730A461A8007F58873A3F514
:10678000827307F58872A2F5857212781A70002359
:1067900087F80F3115E097F80F3107F58872A2F5E9
:1067A000887212681A4497F80F310133117807F58F
:1067B0008872A2F58272D15497F80F31013387F8AD
:1067C0000F3197F80F319BB207F58872A2F58672E8
:1067D00012889A42DFD807F58873A3F209131B7851
:1067E00099B207F58873A3F586731B8801339BB2B2
:1067F00007F10C020A200090034803F0EFF800BFF5
:1068000007F58A77BD4690BD0406002080B586B0A6
:1068100002AF0346FB710B46BB7113467B71BB791C
:106820003B737B797B73FB7999B207F10C020A23E6
:1068300000930223034803F0D1F800BF1037BD4690
:1068400080BD00BF0406002080B584B000AF786032
:106850000B46FB707B681B68FA781146184600F0FF
:10686000D0FB7B681B68184600F0EBFB0346FB730C
:106870007B681B680121184600F088FBFB7B1846EB
:106880001037BD4680BD80B582B000AF78600B4642
:10689000FB701346BB707B681B680021184600F034
:1068A00075FB7B681A68FB7863F07F03DBB21946DF
:1068B000104600F0A6FB7B681B68BA7811461846A4
:1068C00000F09FFB7B681B680121184600F05EFB0F
:1068D00000BF0837BD4680BD90B587B000AFF860F7
:1068E0007A601A460B46FB721346BB72BB7A012BC9
:1068F00027D9FB681B680021184600F047FBFB689E
:106900001B68FA7A1146184600F07BFB0023FB75E2
:106910000CE0FB681968FB7D7A68D418084600F023
:1069200090FB03462370FB7D0133FB75FA7DBB7A38
:106930009A42EED3FB681B680121184600F026FB43
:1069400000E000BF1C37BD4690BD80B586B000AFEB
:10695000F8607A601A460B46FB721346BB72BB7A2C
:10696000012B29D9FB681B680021184600F00EFB9B
:10697000FB681A68FB7A63F07F03DBB219461046A6
:1069800000F03FFB0023FB750BE0FB681868FB7D04
:106990007A6813441B78194600F033FBFB7D013302
:1069A000FB75FA7DBB7A9A42EFD3FB681B68012125
:1069B000184600F0EBFA00E000BF1837BD4680BD76
:1069C00080B586B000AF7860786800F00DF90F20D0
:1069D00000F05DFB786800F017F979684A688B6809
:1069E0004FF000004FF00001D90441EA5231D004C9
:1069F0006F4A4FF00003FFF7D1F902460B46C7E993
:106A00000423D7E904014FF000024FF00003020C09
:106A100042EA01420B0CD3B23B73D7E904014FF0B9
:106A200000024FF00003020A42EA01620B0AD3B2ED
:106A30007B733B7CBB7307F10C0203230621786850
:106A4000FFF783FF342239217868FFF71CFF7B684A
:106A50001B7B1A46574B9B5C1A4609217868FFF747
:106A600012FF0B220B217868FFF70DFF23220C2168
:106A70007868FFF708FF7B685B7B1A464E4B9B5C90
:106A8000062B47D17B689B7B1A464C4B9B5C1B01BA
:106A9000DAB27B68DB7B1946494B5B5C5B00DBB29F
:106AA0001344DBB20133DBB21A461D217868FFF7CD
:106AB000EAFE7B685B7B1A463F4B9B5C1B01DAB2AC
:106AC0007B681B7C19463F4B5B5C9B00DBB213442D
:106AD000DBB20333DBB21A461E217868FFF7D3FE20
:106AE00031217868FFF7B0FE0346FB73FB7B23F090
:106AF0000703FB73FB7B43F00503FB73FB7B1A4629
:106B000031217868FFF7BFFE0C2237217868FFF744
:106B1000BAFE29E07B689B7B1A46284B9B5C1B01D5
:106B2000DAB27B68DB7B1946254B5B5C5B00DBB232
:106B30001344DBB21A461D217868FFF7A4FE7B6878
:106B40005B7B1A461C4B9B5C1B01DAB27B681B7C8F
:106B500019461C4B5B5C9B00DBB21344DBB21A464C
:106B60001E217868FFF78FFE042226217868FFF740
:106B70008AFE08221F217868FFF785FE0022202167
:106B80007868FFF780FE082221217868FFF77BFEF6
:106B9000012241217868FFF776FE7B68002283F8A6
:106BA0001321786800F010F800BF1837BD4680BD8B
:106BB0000048E801ECC60008F0C60008F8C6000866
:106BC00004C7000808C7000880B582B000AF78602D
:106BD000092201217868FFF756FE7B6801229A742A
:106BE00000BF0837BD4680BD80B582B000AF786079
:106BF000082201217868FFF746FE7B6800229A741C
:106C000000BF0837BD4680BD80B582B000AF786058
:106C1000882201217868FFF736FE00BF0837BD469D
:106C200080BD80B582B000AF7860FF221221786805
:106C3000FFF729FE00BF0837BD4680BD80B586B08E
:106C400000AFF8600B467A60FB72FB68FA7A5A7400
:106C5000F868FFF7B5FE84224D21F868FFF713FEB0
:106C6000FF222421F868FFF70EFE01224021F86878
:106C7000FFF709FE3F221121F868FFF704FEF868CC
:106C8000FFF7CFFFFB7A1A462221F868FFF7FBFDDA
:106C90000F21F868FFF7D8FD0346FB75FB7D1A4608
:106CA0000D21F868FFF7EFFD05220121F868FFF7D5
:106CB000EAFDFB68002283F813211821F868FFF72A
:106CC000C3FD034603F00403042B04D1FB68032235
:106CD0009A74012313E07B68013B7B607B68002B87
:106CE00009D1FB681B68184600F067F9F868FFF7E0
:106CF00067FE002303E0012000F0C9F9DDE7184634
:106D00001837BD4680BD80B584B000AF78607B6821
:106D10001B68184600F0C6F90346002B30D07B688C
:106D200013334FF480720021184605F00BF8102140
:106D30007868FFF789FD0346BB73BB7B1A460D21BC
:106D40007868FFF7A0FD7B685B7B002B03D17B6835
:106D50005B7CFB7305E013217868FFF775FD034644
:106D6000FB737B6803F11302FB7B00217868FFF75C
:106D7000B3FD7B68FA7B83F813217868FFF751FF36
:106D80007B6893F8133118461037BD4680BD80B537
:106D900086B000AFF8600B467A60FB72FB68FA7A47
:106DA0005A74F868FFF70CFE87224D21F868FFF748
:106DB0006AFD00222421F868FFF765FD4122402189
:106DC000F868FFF760FDF868FFF72BFFF722112145
:106DD000F868FFF758FDFB7A1A462221F868FFF79A
:106DE00052FD0E21F868FFF72FFD0346FB75FB7D72
:106DF0001A460D21F868FFF746FD2221F868FFF7D3
:106E000023FD0346BB75BA7DFB7A9A4204D1FB6829
:106E100002229A7401230EE07B68013B7B607B6851
:106E2000002BEAD1FB681B68184600F0C6F8F8682A
:106E3000FFF7C6FD002318461837BD4680BD80B554
:106E400084B000AFF860B9603B601346FB71FB791A
:106E5000BA680021F868FFF778FD8B220121F868F5
:106E6000FFF711FDFB681B68184600F01BF903468D
:106E7000002B0BD01221F868FFF7E6FCF868FFF74B
:106E8000D0FEF868FFF7A0FE012313E03B68013B4A
:106E90003B603B68002B09D1FB681B68184600F07B
:106EA0008CF8F868FFF78CFD002303E0012000F068
:106EB000EEF8D7E718461037BD4680BD80B584B0E0
:106EC00000AFF860C7E90023FB681B68184600F0B4
:106ED00048F8FB683A685A607A689A60FB683A7EBC
:106EE0001A73FB683A7F5A73FB6897F820209A73ED
:106EF000FB6897F82420DA73FB6897F828201A7447
:106F0000FB6897F82C205A74F868FFF759FD00BF0A
:106F10001037BD4680BD80B584B000AFF860B96061
:106F20001346FB71FB6893F81331FA799A4203D048
:106F3000FB6893F81331FB71FB681333FA79194638
:106F4000B86804F033FFFB79BA68134400221A7062
:106F5000FB68002283F81321FB7918461037BD46E1
:106F600080BD80B582B000AF78600121786800F004
:106F70000DF87B6858687B681B689BB20122194634
:106F800002F09FFB00BF0837BD4680BD80B582B0D0
:106F900000AF786039607B6858697B681B6999B27B
:106FA0003B68012B0CBF01230023DBB21A4602F021
:106FB00088FB00BF0837BD4680BD80B582B000AFFA
:106FC000786001217868FFF7E1FF7B6858687B688B
:106FD0001B689BB20022194602F073FB012000F0EF
:106FE00056F87B6858687B681B689BB2012219467B
:106FF00002F067FB642000F04AF800BF0837BD4686
:1070000080BD80B582B000AF78600B46FB70002178
:107010007868FFF7BBFF7B689869F91C4FF47A73B7
:10702000012203F097FE00BF7B689B69184604F0BD
:1070300084F90346012BF7D100BF00BF0837BD46D6
:1070400080BD80B586B002AF78600023FB7300235B
:10705000BB7300217868FFF799FF7B68986907F197
:107060000E0207F10F014FF47A730093012303F02E
:10707000B4FF00BF7B689B69184604F05EF90346C5
:10708000012BF7D1BB7B18461037BD4680BD80B5BC
:1070900082B000AF7860786801F002FC00BF08376A
:1070A000BD4680BD80B582B000AF78607B68DA688D
:1070B0007B689B689BB21946104602F0EBFA0346C8
:1070C000012B0CBF01230023DBB218460837BD4655
:1070D00080BD00000000000080B586B006AF224BE6
:1070E000224ADA60204B02229A601F4B204A5A61E2
:1070F0001D4B10221A611C4B1C4A5A601A4B01226C
:107100001A60194B1B4A9A611B4B174A1A601023CD
:10711000059300230493002303930723029306237C
:107120000193012300930EA3D3E900231248FFF734
:10713000C5FE4FF4FA6210210F48FFF77FFD0346AA
:10714000DAB20E4B1A7000F0BDF90D4800F04EFE99
:1071500003460C4A136000F017F800BFBD4680BD1F
:10716000400ECF190000000040070020000C014035
:1071700000080140580600205C070020DB040020C6
:1071800004FC01080405002080B582B000AF384837
:1071900000F06AFD374B1B881946354800F0FEF9B0
:1071A00000237B60344B1A68344B1B689A42EED143
:1071B000314B00221A60324B1A79324B1A70314B24
:1071C0001B78012B02D08C2B09D04FE000212E48D8
:1071D00000F01AFE72B600BF00F026F946E0274B19
:1071E0001B681B0EDAB2294B1A70244B1B681B0C50
:1071F000DAB2264B5A70214B1B681B0ADAB2234BBA
:107200009A701E4B1B68DAB2204BDA701F4B0122BA
:107210001A71174B1A781D4B5A71154B5A781B4B24
:107220009A711A4B0122DA71114B9A78174B1A7224
:107230000F4BDA78154B5A72144B00229A72134B8B
:107240000022DA72114B00221A73072001F083FE2C
:107250000E4800F021F84FF4FA6210210C48FFF7B5
:10726000EDFC0346DAB20B4B1A7000BF8FE700BF8C
:10727000FC04002000050020080500200405002073
:10728000DC040020DA04002000FC0108EC040020EB
:107290005C070020DB04002080B582B000AF78607E
:1072A000214A2249224800F0B9FA10227968204880
:1072B00000F077FC4FF4FA6210211E48FFF767FDDB
:1072C0000346DAB21C4B1A704FF4FA631022796845
:1072D0001848FFF7B4FD0346DAB2174B1A70164B85
:1072E0001B78002B04D04FF40071144802F001FA0F
:1072F000134B1A7D002242F002021A755A7D0022B9
:107300005A759A7D00229A75DA7D0022DA75072077
:1073100001F013FE1022FF210A4804F013FD00BF04
:107320000837BD4680BD00BF1000002000000020CF
:107330000C0500205C070020DB040020000C01404D
:1073400000040140DC04002080B584B000AF034697
:10735000FB800023FB60FB88022B4DD12848FFF700
:10736000D2FC03461A46274B1A70264B1B78002B7B
:1073700042D0244B1B781A4623492148FFF7CBFD06
:1073800003461A461F4B1A70204A2149214800F033
:1073900045FA10221C491F4800F003FC1A4B1B78C9
:1073A0001A06194B5B781B041A43174B9B781B0278
:1073B0001343154AD27813431A46174B1A60164BDB
:1073C0001A68164B1B689A4216D14FF48071144804
:1073D00002F08FF9072001F0BEFD124B1A7D00224A
:1073E00042F002021A755A7D00225A759A7D0022D7
:1073F0009A75DA7D0022DA7500BF1037BD4680BD70
:107400005C070020DB040020DC04002010000020CA
:10741000000000200C0500200805002004050020C5
:10742000000C01400004014080B582B000AFFFF7BE
:107430006AF91C4800F0DAFC03461B4A13601A4B39
:107440001A683B1D1949184604F05CFC0A21052006
:10745000FFF79EF8012216491648FFF72FF9282159
:107460000520FFF795F8012213491448FFF726F984
:1074700032210520FFF78CF801220F491048FFF751
:107480001DF932213C20FFF783F83B1D01220A49F8
:107490001846FFF713F9FEF7C7FF00BF0837BD46D0
:1074A00080BD00BF04FC0108D005002080C6000894
:1074B0002800002084C600082000002090C6000894
:1074C0009CC6000880B586B000AFFEF7E9FE2A48EA
:1074D00000F08CFC0346294A1360294800F086FC22
:1074E0000346284A1360254B1B681B0AFB75234B78
:1074F0001B68BB75FA7DBB7D07F10C00224904F0C7
:1075000001FC204B1A683B462049184604F0FAFB60
:10751000FA7DBB7D07F10C001B4904F0F3FB0A2147
:107520000520FFF735F8012219491A48FFF7C6F878
:107530000A213C20FFF72CF807F10C030122144923
:107540001846FFF7BBF814210520FFF721F80122A8
:107550000F491148FFF7B2F814213C20FFF718F843
:107560003B4601220A491846FFF7A8F8FEF75CFFE0
:1075700000BF1837BD4680BD10FC0108CC050020B7
:1075800004FC0108D0050020A8C6000880C6000839
:1075900020000020B0C60008BCC6000880B58EB030
:1075A00002AF78600B467B807B681B7887F82F30B2
:1075B0007B685B7887F82E307B689B7887F82D3066
:1075C0007B68DB7887F82C3097F82F2097F82E30DF
:1075D00007F1200000931346224A0A2104F05EFBC3
:1075E00097F82D2097F82C3007F1140000931346DC
:1075F0001D4A0A2104F052FB7B8807F108001B4A50
:107600000A2104F04BFB1E210520FEF7C1FF0122D9
:1076100017491848FFF752F81E212820FEF7B8FF37
:1076200007F12003012212491846FFF747F82821E5
:107630000520FEF7ADFF01220D490F48FFF73EF888
:1076400028212820FEF7A4FF07F11403012208498E
:107650001846FFF733F8FEF7E7FE00BF3037BD46A8
:1076600080BD00BFC8C60008D0C60008D8C6000844
:1076700020000020DCC60008E4C6000880B489B001
:1076800000AF786039600023FB6130E0FB699B004C
:107690003A681A44FB699B0079680B4412781A70A7
:1076A000FB699B0001333A681A44FB699B00013374
:1076B00079680B4412781A70FB699B0002333A68B0
:1076C0001A44FB699B00023379680B4412781A70E4
:1076D000FB699B0003333A681A44FB699B00033340
:1076E00079680B4412781A70FB690133FB61FB69FE
:1076F000032BCBD90423FB6181E0FB69013B9B0099
:10770000BB617A68BB6913441B783B73BB69013367
:107710007A6813441B787B73BB6902337A6813441D
:107720001B78BB73BB6903337A6813441B78FB7304
:10773000FB6903F00303002B25D13B7BFB757B7BAF
:107740003B73BB7B7B73FB7BBB73FB7DFB733B7B27
:107750001A46304B9B5C3B737B7B1A462D4B9B5CE4
:107760007B73BB7B1A462B4B9B5CBB73FB7B1A4624
:10777000284B9B5CFB733A7BFB699B082649CB5CDF
:107780005340DBB23B73FB699B003B61FB69043BED
:107790009B00BB617A68BB69134419783A7B7868AF
:1077A0003B6903444A40D2B21A70BB6901337A681C
:1077B000134419787A7B3B690133786803444A4063
:1077C000D2B21A70BB6902337A6813441978BA7B53
:1077D0003B690233786803444A40D2B21A70BB69ED
:1077E00003337A6813441978FA7B3B69033378686A
:1077F00003444A40D2B21A70FB690133FB61FB6952
:107800002B2B7FF67AAF00BF00BF2437BD4680BC6C
:10781000704700BF0CC700080CC8000880B584B0D2
:1078200000AFF860B9607A60FB68B9681846FFF786
:1078300025FFFB68B03310227968184604F0B6FAC9
:1078400000BF1037BD4680BD80B487B000AF03468F
:10785000B9607A60FB730023FB7527E00023BB75DA
:107860001EE0FA7DBB7DB96892000A441344187883
:10787000FB7B9A00FB7D13449A00BB7D13441A46A0
:107880007B6813441978FA7DBB7D4140C8B2B96862
:1078900092000A44134402461A70BB7D0133BB7543
:1078A000BB7D032BDDD9FB7D0133FB75FB7D032BFA
:1078B000D4D900BF00BF1C37BD4680BC7047000054
:1078C00080B485B000AF78600023FB731DE0002317
:1078D000BB7314E0BA7BFB7B796892000A441344C3
:1078E0001B781846BA7BFB7B0C49085C79689200D0
:1078F0000A44134402461A70BB7B0133BB73BB7B43
:10790000032BE7D9FB7B0133FB73FB7B032BDED916
:1079100000BF00BF1437BD4680BC70470CC70008CD
:1079200080B485B000AF78607B685B78FB737B6860
:107930005A797B685A707B685A7A7B685A717B687F
:107940005A7B7B685A727B68FA7B5A737B689B7898
:10795000FB737B689A7A7B689A707B68FA7B9A7271
:107960007B689B79FB737B689A7B7B689A717B68E9
:10797000FA7B9A737B68DB78FB737B68DA7B7B68C6
:10798000DA707B68DA7A7B68DA737B68DA797B682D
:10799000DA727B68FA7BDA7100BF1437BD4680BCAF
:1079A000704780B483B000AF0346FB71FB795B0086
:1079B0005AB2FB79DB09DBB2194649000B44194680
:1079C000C800194603460B44DBB25BB253405BB2BE
:1079D000DBB218460C37BD4680BC704780B584B01A
:1079E00000AF78600023FB73A4E0FA7B7B6813F898
:1079F0002230BB73FA7B7B6813F82220FB7B79680B
:107A00009B000B445B785340DAB2FB7B79689B00A8
:107A10000B449B785340DAB2FB7B79689B000B44A4
:107A2000DB7853407B73FA7B7B6813F82220FB7B67
:107A300079689B000B445B7853403B733B7B184653
:107A4000FFF7AFFF03463B73FA7B7B6813F8221006
:107A50003A7B7B7B5340DBB2FA7B4B40D9B27B68ED
:107A600003F82210FB7B7A689B0013445A78FB7B57
:107A700079689B000B449B7853403B733B7B1846D3
:107A8000FFF78FFF03463B73FB7B7A689B00134431
:107A900059783A7B7B7B5340DAB2FB7B4A40D1B2C8
:107AA0007A689B0013440A465A70FB7B7A689B00F5
:107AB00013449A78FB7B79689B000B44DB78534036
:107AC0003B733B7B1846FFF76CFF03463B73FB7B26
:107AD0007A689B00134499783A7B7B7B5340DAB2F7
:107AE000FB7B4A40D1B27A689B0013440A469A70E5
:107AF000FB7B7A689B001344DA78BB7B53403B7373
:107B00003B7B1846FFF74DFF03463B73FB7B7A68D0
:107B10009B001344D9783A7B7B7B5340DAB2FB7BE2
:107B20004A40D1B27A689B0013440A46DA70FB7B64
:107B30000133FB73FB7B032B7FF657AF00BF00BF06
:107B40001037BD4680BD80B584B000AF7860396025
:107B50000023FB733A6879680020FFF775FE012364
:107B6000FB737868FFF7ACFE7868FFF7D9FEFB7B04
:107B70000A2B0CD07868FFF731FFFB7B3A687968F5
:107B80001846FFF761FEFB7B0133FB73E9E700BF9B
:107B90003A6879680A20FFF757FE00BF1037BD46E4
:107BA00080BD90B58BB000AFF860B9607A600023FB
:107BB0007B6210233B624EE03B6A102B36D1FB68A0
:107BC000B03307F11004186859689A68DB680FC46D
:107BD000FA6807F1100311461846FFF7B4FF0F23A8
:107BE0003B621EE0FA683B6A1344B0331B78FF2BFC
:107BF00006D1FA683B6A1344B03300221A700DE0D4
:107C0000FA683B6A1344B0331B780133D9B2FA687F
:107C10003B6A1344B0330A461A7005E03B6A013BE5
:107C20003B623B6A002BDDDA00233B62BA687B6A69
:107C30001344197807F110023B6A13441A78B868A4
:107C40007B6A03444A40D2B21A707B6A01337B627A
:107C50003B6A01333B627A6A7B689A42ACD300BFCD
:107C600000BF2C37BD4690BD90B58BB000AF78609B
:107C70004FF000037B62FEF729FA0346002B00F069
:107C8000A880FEF793FA034687F82330FEF78EFAB2
:107C9000034687F82230FEF789FA034687F8213039
:107CA000FEF784FA034687F82030FEF77FFA034692
:107CB000FB7797F8232097F822301A4497F8213061
:107CC0001A4497F820301A44FB7F9A4240F0818092
:107CD00097F821301846FDF7C3FF044697F8203087
:107CE0001846FDF73BFC4FF000023E4BFDF7CAFD86
:107CF00002460B4610461946FDF7ACFE03461946F0
:107D00002046FDF7FDFE0346BB6197F82330184679
:107D1000FDF7A6FF044697F822301846FDF71EFC33
:107D20004FF000022F4BFDF7ADFD02460B4610460B
:107D30001946FDF78FFE034619462046FDF7E0FE83
:107D400003467B61B869FEF709F803467B827B8AAC
:107D50001846FDF789FF03461946B869FDF7CEFEC0
:107D6000034621491846FDF7F3F903461846FDF787
:107D7000CFFF03461BB23B827869FDF7EFFF034656
:107D8000FB81FB891846FDF76FFF034619467869AA
:107D9000FDF7B4FE034614491846FDF7D9F903462A
:107DA0001846FDF7B5FF03461BB2BB817B8ADAB2EA
:107DB0007B681A707B6801333A8AD2B21A707B688A
:107DC0000233FA89D2B21A707B680333BA89D2B20D
:107DD0001A704FF4FA6000F063FD00BF2C37BD4607
:107DE00090BD00BF000024400000C84280B485B0B0
:107DF00000AF78607B681B68FB60FB68184614372F
:107E0000BD4680BC704700002DE9B043B2B000AF62
:107E1000786039600023A7F8C6300023A7F8C43083
:107E20000023C7F8C030414BC7F8C03031E0D7F865
:107E3000C0207B689A4214BF01230023DAB2D7F82E
:107E4000C0301B68B3F1FF3F14BF01230023DBB236
:107E50001340DBB2002B17D0B7F8C6309B00C833F5
:107E60003B44D7F8C02043F8582CD7F8C020B7F8C7
:107E7000C63012689B00C8333B4443F8A82CB7F8BF
:107E8000C6300133A7F8C630D7F8C0300433C7F87E
:107E9000C030D7F8C030264A9342C8D900233B618E
:107EA00001237B61214BBB610123FB6101F0DEF803
:107EB00007F10C0207F110031146184601F0BEF954
:107EC0000023A7F8C4301AE0B7F8C4309B00C833C9
:107ED0003B4453F8581CB7F8C4309B00C8333B44AC
:107EE00053F8A83C00229846914642464B46022051
:107EF00001F04CF8B7F8C4300133A7F8C430B7F834
:107F0000C420B7F8C6309A42DED33B6800221C4634
:107F1000154622462B467968022001F037F801F019
:107F2000CBF800BFC837BD46BDE8B08300FC0108F0
:107F30005FFC010880B500AF00F050FC00F014F8C1
:107F400000F0AEF900F0DAF800F00EF900F0A8F851
:107F500000F068F800F058F9024803F0F1FAFFF772
:107F6000BBF8FEE7B006002080B594B000AF07F183
:107F7000280328220021184603F0E4FE07F1140329
:107F800000221A605A609A60DA601A613B1D002272
:107F90001A605A609A60DA600923BB624FF480333A
:107FA000FB6200233B630123BB6301233B64022389
:107FB0007B644FF48033BB644FF4E013FB6407F140
:107FC0002803184602F090F90346002B01D000F078
:107FD0001FFA0F237B610223BB610023FB614FF477
:107FE00080633B6200237B6207F114030221184681
:107FF00002F0FCFB0346002B01D000F009FA02233B
:108000007B604FF40043FB603B1D184602F068FDA7
:108010000346002B01D000F0FBF900BF5037BD46EE
:1080200080BD000080B584B000AF3B1D00221A6007
:108030005A609A60184B194A1A60174B00229A60CE
:10804000154B00221A73144B00221A75124B4FF471
:108050006022DA61104B00225A600F4B01221A6134
:108060000D4800F041FC0346002B01D000F0D0F990
:1080700001237B600123BB600023FB603B1D19468D
:10808000054800F009FD0346002B01D000F0C0F9BF
:1080900000BF1037BD4680BDD4050020002401403C
:1080A00080B500AF124B134A1A60114B124A5A6046
:1080B0000F4B00229A600E4B0022DA600C4B4FF4FB
:1080C00080421A610A4B00225A61094B00229A61D0
:1080D000074B0022DA61064B00221A62044801F0C5
:1080E00039FB0346002B01D000F092F900BF80BDA0
:1080F0000406002000540040801A060080B500AF3E
:10810000174B184A1A60164B4FF482725A60144B80
:1081100000229A60124B0022DA60114B00221A6191
:108120000F4B00225A610E4B4FF400729A610C4BB8
:108130001022DA610A4B00221A62094B00225A62AD
:10814000074B00229A62064B0A22DA62044802F0C8
:108150007DFD0346002B01D000F05AF900BF80BD21
:10816000580600200030014080B586B000AF07F10E
:10817000080300221A605A609A60DA603B460022C7
:108180001A605A601E4B1F4A1A601D4B47225A60E4
:108190001B4B00229A601A4B4FF6FE72DA60184BA6
:1081A00000221A61164B00225A61154B00229A6177
:1081B000134803F075F90346002B01D000F028F9AD
:1081C0004FF48053BB6007F1080319460C4803F0D5
:1081D00009FB0346002B01D000F01AF900233B6095
:1081E00000237B603B461946054803F0E7FC034645
:1081F000002B01D000F00CF900BF1837BD4680BD40
:10820000B0060020002C014080B586B000AF07F119
:10821000080300221A605A609A60DA603B46002226
:108220001A605A601D4B4FF080421A601B4B472268
:108230005A601A4B00229A60184B41F61F42DA60CE
:10824000164B00221A61154B00229A61134803F065
:1082500027F90346002B01D000F0DAF84FF48053E1
:10826000BB6007F1080319460C4803F0BBFA03464C
:10827000002B01D000F0CCF800233B6000237B6092
:108280003B461946054803F099FC0346002B01D0F4
:1082900000F0BEF800BF1837BD4680BDF8060020CC
:1082A00080B588B000AF07F1100300221A605A6051
:1082B0009A60DA60514B9B69504A43F01003936116
:1082C0004E4B9B6903F01003FB60FB684B4B9B69B3
:1082D0004A4A43F020039361484B9B6903F0200313
:1082E000BB60BB68454B9B69444A43F00403936100
:1082F000424B9B6903F004037B607B683F4B9B69A7
:108300003E4A43F0080393613C4B9B6903F008032A
:108310003B603B6800224FF40051394801F0D1F92D
:1083200000221021374801F0CCF9002205213648FF
:1083300001F0C7F901224FF44071334801F0C1F94F
:108340004FF400533B6101237B610023BB61022397
:10835000FB6107F110031946294801F017F81023B3
:108360003B6101237B610023BB610223FB6107F1B9
:1083700010031946234801F009F801233B6101234A
:108380007B610023BB610123FB6107F110031946E8
:108390001D4800F0FBFF02233B611C4B7B61002367
:1083A000BB6107F110031946174800F0EFFF4FF4C7
:1083B00041733B6101237B610023BB610223FB61AD
:1083C00007F110031946104800F0E0FF20233B613D
:1083D00000237B610123BB6107F1100319460A48A2
:1083E00000F0D4FF00220021072000F08AFD0720C2
:1083F00000F0A3FD00BF2037BD4680BD0010024045
:108400000010014000080140000C01400000111064
:1084100080B400AF72B600BFFEE7000080B485B044
:1084200000AF154B9B69144A43F001039361124B53
:108430009B6903F00103BB60BB680F4BDB690E4A0D
:1084400043F08053D3610C4BDB6903F080537B60B6
:108450007B680A4B5B68FB60FB6823F0E063FB60B2
:10846000FB6843F00073FB60044AFB68536000BF85
:108470001437BD4680BC7047001002400000014028
:1084800080B588B000AF786007F1100300221A6051
:108490005A609A60DA607B681B68144A934221D163
:1084A000134B9B69124A43F400739361104B9B6911
:1084B00003F40073FB60FB680D4B9B690C4A43F0AF
:1084C000040393610A4B9B6903F00403BB60BB6820
:1084D00002233B6103237B6107F110031946054822
:1084E00000F054FF00BF2037BD4680BD002401408E
:1084F000001002400008014080B588B000AF7860ED
:1085000007F1100300221A605A609A60DA607B68F3
:108510001B68154A934223D1144B9B69134A43F0BD
:1085200008039361114B9B6903F00803FB60FB6830
:10853000C0233B6112237B610323FB6107F110031E
:1085400019460B4800F022FF084BDB69074A43F449
:108550000013D361054BDB6903F40013BB60BB68F8
:1085600000BF2037BD4680BD0054004000100240CF
:10857000000C014080B588B000AF786007F11003AF
:1085800000221A605A609A60DA607B681B681B4A96
:1085900093422FD11A4B9B69194A43F4805393613C
:1085A000174B9B6903F48053FB60FB68144B9B697A
:1085B000134A43F004039361114B9B6903F00403D6
:1085C000BB60BB68A0233B6102237B610323FB618B
:1085D00007F1100319460B4800F0D8FE40233B6119
:1085E00000237B610023BB6107F110031946054896
:1085F00000F0CCFE00BF2037BD4680BD00300140FA
:10860000001002400008014080B584B000AF7860DF
:108610007B681B68164A93420CD1164B9B69154A1E
:1086200043F400639361134B9B6903F40063FB60A5
:10863000FB6818E07B681B68B3F1804F13D10D4BCA
:10864000DB690C4A43F00103D3610A4BDB6903F099
:108650000103BB60BB68002200211C2000F051FC1C
:108660001C2000F06AFC00BF1037BD4680BD00BF73
:10867000002C01400010024080B400AFBFF34F8FC8
:1086800000BF064BDB6803F4E0620449044B13436C
:10869000CB60BFF34F8F00BF00BFFDE700ED00E0F0
:1086A0000400FA0580B400AFFEE780B500AFFFF725
:1086B000E3FF80B400AFFEE780B400AFFEE780B414
:1086C00000AFFEE780B400AF00BFBD4680BC70477E
:1086D00080B400AF00BFBD4680BC704780B400AF1F
:1086E00000BFBD4680BC704780B500AF00F0BCF84D
:1086F00000BF80BD80B500AF022001F013F800BFBD
:1087000080BD000080B500AF024802F063FF00BFEB
:1087100080BD00BFF806002080B586B000AF78604D
:10872000144A154BD31A7B617B693B61134B1B6861
:10873000002B02D1114B124A1A60104B1A687B6849
:1087400013443A699A4207D203F004FB03460C2211
:108750001A604FF0FF3309E0084B1B68FB60074BC2
:108760001A687B681344054A1360FB68184618377B
:10877000BD4680BD005000200004000070080020AD
:10878000E009002080B400AF00BFBD4680BC704748
:10879000FFF7F8FF0B480C490C4A002302E0D458BD
:1087A000C4500433C4188C42F9D3094A094C00233D
:1087B00001E013600432A242FBD303F0D1FAFFF7C9
:1087C000B9FB7047000000208C00002050DD00083D
:1087D00090000020E0090020FEE7000080B500AF17
:1087E000084B1B68074A43F010031360032000F096
:1087F0007DFB0F2000F008F8FFF710FE002318465D
:1088000080BD00BF0020024080B582B000AF78601C
:10881000124B1A68124B1B7819464FF47A73B3FB4C
:10882000F1F3B2FBF3F3184600F0A3FB0346002B71
:1088300001D001230EE07B680F2B0AD80022796853
:108840004FF0FF3000F05DFB064A7B6813600023A9
:1088500000E0012318460837BD4680BD30000020E7
:10886000380000203400002080B400AF054B1B7896
:108870001A46054B1B681344034A136000BFBD46EC
:1088800080BC7047380000207408002080B400AF1E
:10889000024B1B681846BD4680BC70477408002018
:1088A00080B584B000AF7860FFF7F0FFB8607B68F8
:1088B000FB60FB68B3F1FF3F05D00A4B1B781A46FB
:1088C000FB681344FB6000BFFFF7E0FF0246BB6894
:1088D000D31AFA689A42F7D800BF00BF1037BD46D6
:1088E00080BD00BF3800002080B586B000AF786042
:1088F0000023FB7500233B610023BB600023FB606A
:108900007B68002B01D10123BEE07B689B68002BB4
:108910007B689B6A002B09D17B680022DA627B6846
:10892000002283F824207868FFF7AAFD786800F019
:10893000ABF90346FB757B689B6A03F01003002BC1
:1089400040F09980FB7D002B40F095807B689B6A0E
:1089500023F4885323F0020343F002027B689A62F7
:108960007B685A687B68DB691A437B681B7B5B000A
:108970001343BA681343BB607B689B68B3F5807F81
:1089800003D07B689B68012B02D14FF4807300E019
:1089900000233A6913433B617B681B7D012B19D18E
:1089A0007B681B7B002B09D17B689B69013B5A03C9
:1089B0003B69134343F400633B610BE07B689B6AB4
:1089C00043F020027B689A627B68DB6A43F0010215
:1089D0007B68DA627B681B685B6823F469417B68AB
:1089E0001B683A690A435A607B681B689A68284B7F
:1089F00013407A681268B9680B4393607B689B6880
:108A0000B3F5807F03D07B689B68012B04D17B6822
:108A10001B69013B1B05FB607B681B68DB6A23F459
:108A200070017B681B68FA680A43DA627B681B681E
:108A30009A68184B1340BA689A420BD17B6800229F
:108A4000DA627B689B6A23F0030343F001027B68D0
:108A50009A6218E07B689B6A23F0120343F01002CD
:108A60007B689A627B68DB6A43F001027B68DA62AA
:108A70000123FB7507E07B689B6A43F010027B686B
:108A80009A620123FB75FB7D18461837BD4680BDF1
:108A9000FDF7E1FFFE0E1FFF80B485B000AF7860E8
:108AA00039600023FB730023BB607B6893F824309C
:108AB000012B01D10223DCE07B68012283F8242012
:108AC0003B685B68062B1CD87B681B68596B3B684E
:108AD0005A6813469B001344053B1F2202FA03F316
:108AE000DB4319403B6818683B685A6813469B0093
:108AF0001344053B00FA03F27B681B680A435A6380
:108B00003CE03B685B680C2B1CD87B681B68196BCE
:108B10003B685A6813469B001344233B1F2202FA0A
:108B200003F3DB4319403B6818683B685A681346F7
:108B30009B001344233B00FA03F27B681B680A4343
:108B40001A631BE07B681B68D96A3B685A68134646
:108B50009B001344413B1F2202FA03F3DB431940FD
:108B60003B6818683B685A6813469B001344413BB6
:108B700000FA03F27B681B680A43DA623B681B68F1
:108B8000092B1CD97B681B68D9683B681A68134697
:108B90005B0013441E3B072202FA03F3DB43194038
:108BA0003B6898683B681A6813465B0013441E3B99
:108BB00000FA03F27B681B680A43DA6019E07B68FD
:108BC0001B6819693B681A6813465B001344072247
:108BD00002FA03F3DB4319403B6898683B681A6864
:108BE00013465B00134400FA03F27B681B680A43D8
:108BF0001A613B681B68102B03D03B681B68112B64
:108C000032D17B681B681D4A934225D17B681B6863
:108C10009B6803F40003002B26D17B681B689A68CD
:108C20007B681B6842F400029A603B681B68102B4B
:108C30001AD1134B1B68134AA2FB03239A0C134649
:108C40009B0013445B00BB6002E0BB68013BBB6060
:108C5000BB68002BF9D107E07B689B6A43F02002D8
:108C60007B689A620123FB737B68002283F82420CF
:108C7000FB7B18461437BD4680BC7047002401407A
:108C80003000002083DE1B4380B584B000AF7860E5
:108C90000023FB607B681B689B6803F00103012BCA
:108CA0002ED17B681B689A687B681B6822F00102E2
:108CB0009A60FFF7EBFDF8601BE0FFF7E7FD024667
:108CC000FB68D31A022B14D97B681B689B6803F0DE
:108CD0000103012B0DD17B689B6A43F010027B6876
:108CE0009A627B68DB6A43F001027B68DA620123E7
:108CF00007E07B681B689B6803F00103012BDCD055
:108D0000002318461037BD4680BD000080B485B0F2
:108D100000AF78607B6803F00703FB600C4BDB68F7
:108D2000BB60BA684FF6FF031340BB60FB681A02D2
:108D3000BB68134343F0BF6343F40033BB60044A92
:108D4000BB68D36000BF1437BD4680BC704700BF0E
:108D500000ED00E080B400AF044BDB681B0A03F0B9
:108D600007031846BD4680BC704700BF00ED00E019
:108D700080B483B000AF0346FB7197F90730002B36
:108D80000BDBFB7903F01F02064997F907305B09FB
:108D9000012000FA02F241F8232000BF0C37BD4643
:108DA00080BC704700E100E080B483B000AF0346B0
:108DB000FB7197F90730002B12DBFB7903F01F02E0
:108DC0000A4997F907305B09012000FA02F22033C3
:108DD00041F82320BFF34F8F00BFBFF36F8F00BF59
:108DE00000BF0C37BD4680BC704700BF00E100E00B
:108DF00080B483B000AF03463960FB7197F9073048
:108E0000002B0ADB3B68DAB20C4997F907301201F4
:108E1000D2B20B4483F800230AE03B68DAB2084977
:108E2000FB7903F00F03043B1201D2B20B441A7614
:108E300000BF0C37BD4680BC704700BF00E100E0BA
:108E400000ED00E080B489B000AFF860B9607A60EE
:108E5000FB6803F00703FB61FB69C3F10703042B05
:108E600028BF0423BB61FB690433062B02D9FB69CD
:108E7000033B00E000237B614FF0FF32BB6902FA45
:108E800003F3DA43BB681A407B699A404FF0FF3125
:108E90007B6901FA03F3D9437B680B4013431846FF
:108EA0002437BD4680BC704780B582B000AF786083
:108EB0007B68013BB3F1807F01D301230FE00A4AB5
:108EC0007B68013B53600F214FF0FF30FFF790FFAD
:108ED000054B00229A60044B07221A6000231846B3
:108EE0000837BD4680BD00BF10E000E080B582B00D
:108EF00000AF78607868FFF709FF00BF0837BD460C
:108F000080BD80B586B000AF0346B9607A60FB7360
:108F100000237B61FFF71EFF78617A68B968786982
:108F2000FFF790FF024697F90F3011461846FFF7FA
:108F30005FFF00BF1837BD4680BD80B582B000AF6F
:108F40000346FB7197F907301846FFF711FF00BF82
:108F50000837BD4680BD80B582B000AF0346FB71C7
:108F600097F907301846FFF71FFF00BF0837BD46C7
:108F700080BD80B582B000AF78607868FFF794FF5D
:108F8000034618460837BD4680BD0000F0B587B0DF
:108F900000AFF860B960C7E900230123FB75002327
:108FA000BB7500237B752F4B1B7E012B01D1022348
:108FB00054E02C4B01221A764CF2503000F0A8F805
:108FC0000346FB75FB7D002B44D1FB68012B02D1CE
:108FD00001237B7507E0FB68022B02D102237B751E
:108FE00001E004237B750023BB752DE0BB7D5A0097
:108FF000BB6802EB030CBB7D1901D7E90023C1F16B
:109000002006A1F1200022FA01F403FA06F6344307
:1090100023FA00F0044323FA01F5A3B2194660468F
:1090200000F05AF84CF2503000F072F80346FB752D
:109030000D4B1B690C4A23F001031361FB7D002BD0
:1090400007D1BB7D0133BB75BA7D7B7D9A42CDD301
:1090500000E000BF034B00221A76FB7D18461C3748
:10906000BD46F0BD780800200020024080B483B0E7
:1090700000AF0023FB710D4B1B6903F08003002B35
:109080000DD00A4B0A4A5A60084B0A4A5A60074BED
:109090001B6903F08003002B01D00123FB71FB79D6
:1090A00018460C37BD4680BC704700BF0020024008
:1090B00023016745AB89EFCD80B400AF054B1B6939
:1090C000044A43F08003136100231846BD4680BC68
:1090D000704700BF0020024080B483B000AF7860CA
:1090E0000B467B80084B0022DA61084B1B69074A5C
:1090F00043F0010313617B687A881A8000BF0C3744
:10910000BD4680BC704700BF7808002000200240A8
:1091100080B584B000AF7860FFF7B8FBF86010E06E
:109120007B68B3F1FF3F0CD07B68002B07D0FFF7C3
:10913000ADFB0246FB68D31A7A689A4201D2032338
:1091400025E0154BDB6803F00103002BE8D1124B3F
:10915000DB6803F02003002B02D00F4B2022DA60E3
:109160000D4BDB6803F01003002B0BD10A4BDB69BE
:1091700003F00103002B05D1074BDB6803F0040368
:10918000002B03D000F00AF8012300E0002318466A
:109190001037BD4680BD00BF0020024080B483B0C0
:1091A00000AF00237B60234BDB6803F01003002B30
:1091B00009D0214BDB6943F002031F4AD3617B686E
:1091C00043F010037B601B4BDB6803F00403002BB0
:1091D00009D0194BDB6943F00103174AD3617B685F
:1091E00043F004037B60134BDB6903F00103002BA6
:1091F0000BD0114BDB6943F004030F4AD3610D4BD5
:10920000DB690C4A23F00103D3617B6840F2011251
:10921000934206D1074BDB69064A23F00103D36171
:1092200002E0044A7B68D36000BF0C37BD4680BCB7
:10923000704700BF002002407808002080B584B04D
:1092400000AF786039600123FB730023BB602F4BB4
:109250001B7E012B01D1022353E02C4B01221A76F5
:109260007B681B68022B16D14CF25030FFF750FF81
:109270000346002B41D1012000F04CF84CF2503055
:10928000FFF746FF0346FB73214B1B69204A23F07F
:109290000403136131E04CF25030FFF739FF03460D
:1092A000002B2AD13B684FF0FF321A607B689B6825
:1092B000BB6019E0B86800F049F84CF25030FFF795
:1092C00027FF0346FB73124B1B69114A23F002036D
:1092D0001361FB7B002B03D03B68BA681A600CE07B
:1092E000BB6803F58063BB607B68DB689A027B68C0
:1092F0009B681344BA689A42DCD3044B00221A7666
:10930000FB7B18461037BD4680BD00BF78080020A3
:109310000020024080B483B000AF7860094B002287
:10932000DA61094B1B69084A43F004031361064BD9
:109330001B69054A43F04003136100BF0C37BD466B
:1093400080BC7047780800200020024080B483B0C1
:1093500000AF78600B4B0022DA610B4B1B690A4AA5
:1093600043F002031361084A7B685361064B1B6993
:10937000054A43F04003136100BF0C37BD4680BC73
:10938000704700BF780800200020024080B48BB0F6
:1093900000AF7860396000237B6200233B6269E1A3
:1093A00001227B6A02FA03F3FB613B681B68FA69DE
:1093B0001340BB61BA69FB699A4240F058813B682F
:1093C0005B689A4A93425ED0984A934275D8984A0D
:1093D000934258D0964A93426FD8964A934252D0BD
:1093E000944A934269D8944A93424CD0924A934209
:1093F00063D8924A934246D0904A93425DD8122B4A
:109400002AD8122B59D801A252F823F087940008C9
:109410006194000873940008B5940008BB94000898
:10942000BB940008BB940008BB940008BB940008E0
:10943000BB940008BB940008BB940008BB940008D0
:10944000BB940008BB940008BB940008BB940008C0
:10945000699400087D940008794A934213D02CE067
:109460003B68DB683B6229E03B68DB6804333B62B6
:1094700024E03B68DB6808333B621FE03B68DB6845
:109480000C333B621AE03B689B68002B02D104233B
:109490003B6213E03B689B68012B05D108233B62CC
:1094A0007B68FA691A6109E008233B627B68FA6904
:1094B0005A6103E000233B6200E000BFBB69FF2B61
:1094C00001D87B6801E07B6804337B61BB69FF2BBB
:1094D00002D87B6A9B0002E07B6A083B9B003B61F1
:1094E0007B691A680F213B6901FA03F3DB431A40D9
:1094F000396A3B6901FA03F31A437B691A603B68D6
:109500005B6803F08053002B00F0B1804D4B9B69EA
:109510004C4A43F0010393614A4B9B6903F00103FA
:10952000BB60BB68484A7B6A9B08023352F8233011
:10953000FB607B6A03F003039B000F2202FA03F334
:10954000DB43FA681340FB607B68404A934213D0C8
:109550007B683F4A93420DD07B683E4A934207D0D6
:109560007B683D4A934201D1032306E0042304E0D3
:10957000022302E0012300E000237A6A02F00302E2
:1095800092009340FA681343FB602F497B6A9B0863
:109590000233FA6841F823203B685B6803F48013C8
:1095A000002B06D02D4B9A682C49BB6913438B6066
:1095B00006E02A4B9A68BB69DB43284913408B605D
:1095C0003B685B6803F40013002B06D0234BDA687A
:1095D0002249BB691343CB6006E0204BDA68BB69C4
:1095E000DB431E491340CB603B685B6803F40033E8
:1095F000002B06D0194B5A681849BB6913434B60BE
:1096000006E0164B5A68BB69DB43144913404B60B4
:109610003B685B6803F48033002B21D00F4B1A6842
:109620000E49BB6913430B6021E000BF00003210FC
:109630000000311000002210000021100000121064
:10964000000011100010024000000140000801401D
:10965000000C0140001001400014014000040140D2
:109660000B4B1A68BB69DB43094913400B607B6AEB
:1096700001337B623B681A687B6A22FA03F3002B92
:109680007FF48EAE00BF00BF2C37BD4680BC704754
:109690000004014080B485B000AF78600B467B8049
:1096A0007B689A687B881340002B02D00123FB73F0
:1096B00001E00023FB73FB7B18461437BD4680BCDA
:1096C000704780B483B000AF78600B467B80134650
:1096D0007B707B78002B03D07A887B681A6103E06B
:1096E0007B881A047B681A6100BF0C37BD4680BCBA
:1096F000704780B485B000AF78600B467B807B6894
:10970000DB68FB607A88FB6813401A04FB68D94366
:109710007B880B401A437B681A6100BF1437BD4633
:1097200080BC704780B582B000AF0346FB80084B19
:109730005A69FB881340002B06D0054AFB88536109
:10974000FB881846FDF700FE00BF0837BD4680BD08
:109750000004014080B584B000AF78607B68002BC6
:1097600001D101232BE17B6893F83D30DBB2002B64
:1097700006D17B68002283F83C207868FEF7BCFEA7
:109780007B68242283F83D207B681B681A687B680D
:109790001B6822F001021A607B681B681A687B68EC
:1097A0001B6842F400421A607B681B681A687B6879
:1097B0001B6822F400421A6001F060F9F8607B68CF
:1097C0005B68814A934207D8FB68804A934294BF02
:1097D00001230023DBB206E0FB687D4A934294BF7D
:1097E00001230023DBB2002B01D00123E7E0FB685B
:1097F000784AA2FB03239B0CBB607B681B685B68F9
:1098000023F03F017B681B68BA680A435A607B6893
:109810001B681B6A23F03F017B685B686A4A9342BE
:1098200002D8BB68013309E0BB684FF4967202FBB3
:1098300003F3694AA2FB03239B0901337A68126888
:109840000B4313627B681B68DB6923F44F4222F0F1
:10985000FF027B685B685C498B4219D8FB68591E24
:109860007B685B685B00B1FBF3F3591C40F6FC734B
:109870000B40002B0AD0FB68591E7B685B685B00BD
:10988000B1FBF3F30133C3F30B0351E004234FE0C7
:109890007B689B68002B11D1FB68581E7B68596858
:1098A0000B465B000B44B0FBF3F30133C3F30B0334
:1098B000002B0CBF01230023DBB212E0FB68581E13
:1098C0007B6859680B469B000B4499000B44B0FB26
:1098D000F3F30133C3F30B03002B0CBF012300236D
:1098E000DBB2002B01D0012322E07B689B68002BB8
:1098F0000ED1FB68581E7B6859680B465B000B4411
:10990000B0FBF3F30133C3F30B0343F400430FE065
:10991000FB68581E7B6859680B469B000B449900F6
:109920000B44B0FBF3F30133C3F30B0343F44043A5
:10993000796809681343CB617B681B681B6823F057
:10994000C0017B68DA697B681B6A1A437B681B6805
:109950000A431A607B681B689B6823F4034323F067
:10996000FF037A6811697A68D26811437A681268CD
:109970000B4393607B681B68DB6823F0FF017B6807
:109980005A697B689B691A437B681B680A43DA60E3
:109990007B681B681A687B681B6842F001021A60CA
:1099A0007B6800221A647B68202283F83D207B6854
:1099B00000221A637B68002283F83E2000231846A9
:1099C0001037BD4680BD00BFA08601007F841E0009
:1099D000FF083D0083DE1B43D34D621080B588B085
:1099E00002AFF8607A601A460B467B8113463B81D2
:1099F000FEF74CFF7861FB6893F83D30DBB2202B1B
:109A000040F0E0807B690093192301227049F868D7
:109A100000F092FA0346002B01D00223D3E0FB684A
:109A200093F83C30012B01D10223CCE0FB680122EA
:109A300083F83C20FB681B681B6803F00103012BC3
:109A400007D0FB681B681A68FB681B6842F00102BC
:109A50001A60FB681B681A68FB681B6822F40062C6
:109A60001A60FB68212283F83D20FB68102283F8EE
:109A70003E20FB6800221A64FB687A685A62FB6821
:109A80003A895A85FB685B8D9AB2FB681A85FB6838
:109A9000504ADA6279897B693A6AF86800F0CAF953
:109AA0000346002B01D001238DE000233B61FB68BE
:109AB0001B685B693B61FB681B689B693B613B6999
:109AC00066E07A69396AF86800F050FB0346002BBB
:109AD0000DD0FB681B6C042B07D1FB681B681A6850
:109AE000FB681B6842F400721A6001236BE0FB689C
:109AF0005B6A1A78FB681B681A61FB685B6A5A1C10
:109B0000FB685A62FB685B8D9BB2013B9AB2FB68B3
:109B10005A85FB681B8D013B9AB2FB681A85FB686E
:109B20001B685B6903F00403042B1BD1FB681B8DCE
:109B3000002B17D0FB685B6A1A78FB681B681A61F8
:109B4000FB685B6A5A1CFB685A62FB685B8D9BB2C0
:109B5000013B9AB2FB685A85FB681B8D013B9AB2A8
:109B6000FB681A857A69396AF86800F047FB034692
:109B7000002B0DD0FB681B6C042B07D1FB681B6806
:109B80001A68FB681B6842F400721A6001231AE02D
:109B9000FB681B8D002B94D1FB681B681A68FB685F
:109BA0001B6842F400721A60FB68202283F83D2093
:109BB000FB68002283F83E20FB68002283F83C20EB
:109BC000002300E0022318461837BD4680BD00BFC1
:109BD000020010000000FFFF80B58AB002AFF860FD
:109BE0007A603B600B467B81FEF750FEF8610023F4
:109BF000BB61FB6893F83D30DBB2202B40F0118154
:109C0000FB690093192301228849F86800F094F950
:109C10000346002B01D0022304E1FB6893F83C309B
:109C2000012B01D10223FDE0FB68012283F83C20D7
:109C3000FB681B681B6803F00103012B07D0FB685E
:109C40001B681A68FB681B6842F001021A60FB6817
:109C50001B681A68FB681B6822F400621A60FB68C4
:109C6000242283F83D20FB6800221A64FB68704AB6
:109C7000DA62FB681B681A68FB681B6842F4807232
:109C80001A60FB6900933B6800224FF00111F868ED
:109C900000F052F90346002B0DD0FB681B681B68CF
:109CA00003F48073B3F5807F03D1FB684FF4007237
:109CB0001A640323B6E07B89DBB21A46FB681B6893
:109CC00002F0FE021A61FEF7E1FDF861FB681B6815
:109CD0005B6903F00203022B0CBF01230023DBB2FC
:109CE000FB75FB681B685B6903F48063B3F5806FE9
:109CF0000CBF01230023DBB2BB7525E0FEF7C6FDD8
:109D00000246FB69D31A3A689A4202D33B68002B99
:109D100003D1FB68A02283F83D20FB681B685B69C8
:109D200003F00203022B0CBF01230023DBB2FB75FF
:109D3000FB681B685B6903F48063B3F5806F0CBF3D
:109D400001230023DBB2BB75FB6893F83D30DBB227
:109D5000A02B05D0FB7D002B02D1BB7D002BCDD0ED
:109D6000FB68202283F83D20FB681B685B6903F0D9
:109D70000203022B29D1FB681B681A68FB681B6869
:109D800042F400721A6000233B61FB681B685B6948
:109D90003B61FB681B689B693B613B69FB69009306
:109DA000192301222149F86800F0C6F80346002B68
:109DB00001D0012336E0FB68202283F83D20FB68B8
:109DC000002283F83C2000232CE0FB681B681A6803
:109DD000FB681B6842F400721A60FB681B686FF432
:109DE00080625A61FB690093192301220F49F868C8
:109DF00000F0A2F80346002B01D0012312E0BB695A
:109E00000133BB61BA697B689A42FFF432AFFB68E9
:109E1000202283F83D20FB68002283F83C200123A8
:109E200000E0022318462037BD4680BD0200100026
:109E30000000FFFF80B588B002AFF8607A603B6039
:109E40000B467B81FB68DB6A7B617B69082B06D054
:109E50007B69012B03D07B6913F5803F08D1FB6838
:109E60001B681A68FB681B6842F480721A600BE07A
:109E7000FB681B6B122B07D1FB681B681A68FB6819
:109E80001B6842F480721A603B6800937B68002272
:109E90004FF00111F86800F04FF80346002B0DD089
:109EA000FB681B681B6803F48073B3F5807F03D1E4
:109EB000FB684FF400721A64032335E0FB681B69EA
:109EC000B3F5804F08D17B89DBB21A46FB681B686B
:109ED00002F0FE021A611BE07B89DB11DBB203F0AA
:109EE0000603DBB263F00F03DAB2FB681B681A618A
:109EF0003B687A680E49F86800F098F80346002B32
:109F000001D0012310E07B89DAB2FB681B681A617B
:109F10003B687A680749F86800F088F80346002B28
:109F200001D0012300E0002318461837BD4680BD4C
:109F3000080001000200010080B584B000AFF860A5
:109F4000B9603B601346FB7148E03B68B3F1FF3FEB
:109F500044D0FEF79BFC0246BB69D31A3A689A428A
:109F600002D33B68002B39D1BB681B0CDBB2012B41
:109F70000DD1FB681B685B69DA43BB6813409BB279
:109F8000002B0CBF01230023DBB21A460CE0FB6858
:109F90001B689B69DA43BB6813409BB2002B0CBF64
:109FA00001230023DBB21A46FB799A4216D1FB68E3
:109FB00000221A63FB68202283F83D20FB68002200
:109FC00083F83E20FB681B6C43F02002FB681A6498
:109FD000FB68002283F83C20012323E0BB681B0CB4
:109FE000DBB2012B0DD1FB681B685B69DA43BB68F0
:109FF00013409BB2002B0CBF01230023DBB21A4697
:10A000000CE0FB681B689B69DA43BB6813409BB29A
:10A01000002B0CBF01230023DBB21A46FB799A42C6
:10A0200093D0002318461037BD4680BD80B584B05C
:10A0300000AFF860B9607A603B6071E0FB681B6854
:10A040005B6903F48063B3F5806F23D1FB681B6801
:10A050001A68FB681B6842F400721A60FB681B6890
:10A060006FF480625A61FB6800221A63FB68202249
:10A0700083F83D20FB68002283F83E20FB681B6CC0
:10A0800043F00402FB681A64FB68002283F83C205A
:10A09000012367E07B68B3F1FF3F41D0FEF7F6FB99
:10A0A00002463B68D31A7A689A4202D37B68002B37
:10A0B00036D1BB681B0CDBB2012B0CD1FB681B68D3
:10A0C0005B69DA43BB6813409BB2002B14BF0123CA
:10A0D0000023DBB20BE0FB681B689B69DA43BB68BB
:10A0E00013409BB2002B14BF01230023DBB2002BD3
:10A0F00016D0FB6800221A63FB68202283F83D20FB
:10A10000FB68002283F83E20FB681B6C43F02002B2
:10A11000FB681A64FB68002283F83C20012321E0DD
:10A12000BB681B0CDBB2012B0CD1FB681B685B69A5
:10A13000DA43BB6813409BB2002B14BF01230023FA
:10A14000DBB20BE0FB681B689B69DA43BB6813401A
:10A150009BB2002B14BF01230023DBB2002B7FF442
:10A160006DAF002318461037BD4680BD80B584B062
:10A1700000AFF860B9607A6034E0F86800F086F803
:10A180000346002B01D0012334E0BB68B3F1FF3F4D
:10A1900028D0FEF77BFB02467B68D31ABA689A4246
:10A1A00002D3BB68002B1DD1FB681B685B6903F001
:10A1B0008003802B16D0FB6800221A63FB682022E4
:10A1C00083F83D20FB68002283F83E20FB681B6C6F
:10A1D00043F02002FB681A64FB68002283F83C20ED
:10A1E000012307E0FB681B685B6903F08003802B99
:10A1F000C3D1002318461037BD4680BD80B584B05A
:10A2000000AFF860B9607A6034E0F86800F03EF8BA
:10A210000346002B01D0012334E0BB68B3F1FF3FBC
:10A2200028D0FEF733FB02467B68D31ABA689A42FD
:10A2300002D3BB68002B1DD1FB681B685B6903F070
:10A240000403042B16D0FB6800221A63FB6820224B
:10A2500083F83D20FB68002283F83E20FB681B6CDE
:10A2600043F02002FB681A64FB68002283F83C205C
:10A27000012307E0FB681B685B6903F00403042B00
:10A28000C3D1002318461037BD4680BD80B483B0CB
:10A2900000AF78607B681B685B6903F48063B3F58B
:10A2A000806F1BD17B681B686FF480625A617B688A
:10A2B00000221A637B68202283F83D207B680022FD
:10A2C00083F83E207B681B6C43F004027B681A64B1
:10A2D0007B68002283F83C20012300E0002318461D
:10A2E0000C37BD4680BC704780B586B000AF786043
:10A2F0007B68002B01D1012372E27B681B6803F0AD
:10A300000103002B00F08780924B5B6803F00C0385
:10A31000042B0CD08F4B5B6803F00C03082B12D17D
:10A320008C4B5B6803F48033B3F5803F0BD1894BD2
:10A330001B6803F40033002B6CD07B685B68002B38
:10A3400068D101234CE27B685B68B3F5803F06D19E
:10A35000804B1B687F4A43F4803313602EE07B6898
:10A360005B68002B0CD17B4B1B687A4A23F480334B
:10A370001360784B1B68774A23F4802313601DE039
:10A380007B685B68B3F5A02F0CD1724B1B68714AD8
:10A3900043F4802313606F4B1B686E4A43F4803391
:10A3A00013600BE06B4B1B686A4A23F48033136025
:10A3B000684B1B68674A23F4802313607B685B68E3
:10A3C000002B13D0FEF762FA386108E0FEF75EFA60
:10A3D00002463B69D31A642B01D9032300E25D4B8B
:10A3E0001B6803F40033002BF0D014E0FEF74EFAA4
:10A3F000386108E0FEF74AFA02463B69D31A642B3B
:10A4000001D90323ECE1534B1B6803F40033002B09
:10A41000F0D100E000BF7B681B6803F00203002B53
:10A4200063D04C4B5B6803F00C03002B0BD0494B03
:10A430005B6803F00C03082B1CD1464B5B6803F4EC
:10A440008033002B16D1434B1B6803F00203002B13
:10A4500005D07B681B69012B01D00123C0E13D4B76
:10A460001B6823F0F8027B685B69DB003949134302
:10A470000B603AE07B681B69002B20D0364B012231
:10A480001A60FEF703FA386108E0FEF7FFF90246AA
:10A490003B69D31A022B01D90323A1E12D4B1B6881
:10A4A00003F00203002BF0D02A4B1B6823F0F802C4
:10A4B0007B685B69DB00274913430B6015E0264B83
:10A4C00000221A60FEF7E2F9386108E0FEF7DEF9D3
:10A4D00002463B69D31A022B01D9032380E11D4BAD
:10A4E0001B6803F00203002BF0D17B681B6803F0AC
:10A4F0000803002B3AD07B689B69002B19D0174BBF
:10A5000001221A60FEF7C2F9386108E0FEF7BEF9D1
:10A5100002463B69D31A022B01D9032360E10D4B9C
:10A520005B6A03F00203002BF0D0012000F0BAFABE
:10A530001CE00A4B00221A60FEF7A8F938610FE010
:10A54000FEF7A4F902463B69D31A022B08D903236C
:10A5500046E100BF00100240000042428004424237
:10A56000924B5B6A03F00203002BE9D17B681B6806
:10A5700003F00403002B00F0A6800023FB758B4B37
:10A58000DB6903F08053002B0DD1884BDB69874AD0
:10A5900043F08053D361854BDB6903F08053BB608C
:10A5A000BB680123FB75824B1B6803F48073002B8F
:10A5B00018D17F4B1B687E4A43F480731360FEF70B
:10A5C00065F9386108E0FEF761F902463B69D31A84
:10A5D000642B01D9032303E1754B1B6803F48073DB
:10A5E000002BF0D07B68DB68012B06D16F4B1B6A18
:10A5F0006E4A43F0010313622DE07B68DB68002B99
:10A600000CD16A4B1B6A694A23F001031362674B42
:10A610001B6A664A23F0040313621CE07B68DB6854
:10A62000052B0CD1614B1B6A604A43F00403136293
:10A630005E4B1B6A5D4A43F0010313620BE05B4B08
:10A640001B6A5A4A23F001031362584B1B6A574A8C
:10A6500023F0040313627B68DB68002B15D0FEF740
:10A6600015F938610AE0FEF711F902463B69D31A81
:10A6700041F28832934201D90323B1E04B4B1B6A6C
:10A6800003F00203002BEED014E0FEF7FFF8386170
:10A690000AE0FEF7FBF802463B69D31A41F2883222
:10A6A000934201D903239BE0404B1B6A03F0020352
:10A6B000002BEED1FB7D012B05D13C4BDB693B4AE6
:10A6C00023F08053D3617B68DB69002B00F0878027
:10A6D000364B5B6803F00C03082B61D07B68DB69A9
:10A6E000022B46D1334B00221A60FEF7CFF83861B7
:10A6F00008E0FEF7CBF802463B69D31A022B01D9DA
:10A7000003236DE0294B1B6803F00073002BF0D18D
:10A710007B681B6AB3F5803F08D1244B5B6823F448
:10A7200000327B689B68214913434B601F4B5B6879
:10A7300023F474127B68196A7B685B6A0B431B49BC
:10A7400013434B601B4B01221A60FEF79FF83861E0
:10A7500008E0FEF79BF802463B69D31A022B01D9A9
:10A7600003233DE0114B1B6803F00073002BF0D076
:10A7700035E0104B00221A60FEF788F8386108E0D7
:10A78000FEF784F802463B69D31A022B01D9032352
:10A7900026E0064B1B6803F00073002BF0D11EE08F
:10A7A0007B68DB69012B07D1012319E0001002400F
:10A7B00000700040600042420B4B5B68FB60FB682E
:10A7C00003F480327B681B6A9A4206D1FB6803F46B
:10A7D00070127B685B6A9A4201D0012300E000237B
:10A7E00018461837BD4680BD0010024080B584B0C1
:10A7F00000AF786039607B68002B01D10123D0E085
:10A800006A4B1B6803F007033A689A4210D9674BFA
:10A810001B6823F0070265493B6813430B60634BD9
:10A820001B6803F007033A689A4201D00123B8E09D
:10A830007B681B6803F00203002B20D07B681B6839
:10A8400003F00403002B05D0594B5B68584A43F4CE
:10A85000E06353607B681B6803F00803002B05D09E
:10A86000534B5B68524A43F460535360504B5B68F0
:10A8700023F0F0027B689B684D4913434B607B6873
:10A880001B6803F00103002B40D07B685B68012B41
:10A8900007D1474B1B6803F40033002B15D101236C
:10A8A0007FE07B685B68022B07D1414B1B6803F09C
:10A8B0000073002B09D1012373E03D4B1B6803F0AB
:10A8C0000203002B01D101236BE0394B5B6823F0BD
:10A8D00003027B685B68364913434B60FDF7D6FF84
:10A8E000F8600AE0FDF7D2FF0246FB68D31A41F296
:10A8F0008832934201D9032353E02D4B5B6803F068
:10A900000C027B685B689B009A42EBD1274B1B686B
:10A9100003F007033A689A4210D2244B1B6823F0D5
:10A92000070222493B6813430B60204B1B6803F06E
:10A9300007033A689A4201D0012332E07B681B6822
:10A9400003F00403002B08D0194B5B6823F4E0628A
:10A950007B68DB68164913434B607B681B6803F018
:10A960000803002B09D0124B5B6823F460527B680C
:10A970001B69DB000E4913434B6000F021F80246CF
:10A980000B4B5B681B0903F00F030A49CB5C22FAEF
:10A9900003F3094A1360094B1B681846FDF734FF9F
:10A9A000002318461037BD4680BD00BF002002407E
:10A9B00000100240E0DC00083000002034000020DD
:10A9C00080B487B000AF0023FB600023BB6000238E
:10A9D0007B6100237B6000233B611E4B5B68FB6057
:10A9E000FB6803F00C03042B02D0082B03D027E0F4
:10A9F000194B3B6127E0FB689B0C03F00F03174AE0
:10AA0000D35C7B60FB6803F48033002B10D0114BC8
:10AA10005B685B0C03F00103114AD35CBB607B688D
:10AA20000D4A03FB02F2BB68B2FBF3F37B6104E067
:10AA30007B680C4A02FB03F37B617B693B6102E0AC
:10AA4000054B3B6100BF3B6918461C37BD4680BCC7
:10AA5000704700BF0010024000127A00F8DC0008C6
:10AA600008DD000800093D0080B400AF024B1B6800
:10AA70001846BD4680BC70473000002080B500AF4E
:10AA8000FFF7F2FF0246054B5B681B0A03F0070362
:10AA90000349CB5C22FA03F3184680BD0010024044
:10AAA000F0DC000880B485B000AF78600A4B1B680A
:10AAB0000A4AA2FB03235B0A7A6802FB03F3FB60EA
:10AAC00000BFFB685A1EFA60002BF9D100BF00BF1F
:10AAD0001437BD4680BC704730000020D34D621053
